:100000000C9452000C946F000C946F000C946F00D1
:100010000C946F000C943D020C946F000C946F00D4
:100020000C946F000C946F000C946F000C946F0094
:100030000C946F000C946F000C946F000C946F0084
:100040000C94DC000C946F000C9426010C94440179
:100050000C946F000C946F000C946F000C946F0064
:100060000C946F000C946F00000000002500280025
:100070002B0000000000240027002A0004040404D0
:100080000404040402020202020203030303030342
:10009000010204081020408001020408102001021F
:1000A0000408102011241FBECFEFD8E0DEBFCDBF63
:1000B00011E0A0E0B1E0E2E5F7E102C005900D92A9
:1000C000A831B107D9F724E0A8E1B1E001C01D9241
:1000D000A236B207E1F70E944A080C94A70B0C94D1
:1000E00000003FB7F8948091F4039091F503A0913C
:1000F000F603B091F70326B5A89B05C02F3F19F072
:100100000196A11DB11D3FBFBA2FA92F982F882797
:10011000820F911DA11DB11DBC01CD0142E0660FF2
:10012000771F881F991F4A95D1F708958F929F9244
:10013000AF92BF92CF92DF92EF92FF926B017C0160
:100140000E9471004B015C01C114D104E104F1046F
:10015000F1F00E947100DC01CB0188199909AA090C
:10016000BB09883E9340A105B10570F321E0C21A96
:10017000D108E108F10888EE880E83E0981EA11CE2
:10018000B11CC114D104E104F10419F7DDCFFF90D3
:10019000EF90DF90CF90BF90AF909F908F90089599
:1001A0002FB7F8946091F0037091F1038091F203FE
:1001B0009091F3032FBF08951F920F920FB60F92E5
:1001C00011242F933F938F939F93AF93BF9380916D
:1001D000F0039091F103A091F203B091F3033091F9
:1001E000EF0323E0230F2D3720F40196A11DB11D4D
:1001F00005C026E8230F0296A11DB11D2093EF0331
:100200008093F0039093F103A093F203B093F30370
:100210008091F4039091F503A091F603B091F70358
:100220000196A11DB11D8093F4039093F503A09353
:10023000F603B093F703BF91AF919F918F913F91D8
:100240002F910F900FBE0F901F9018951F920F9235
:100250000FB60F9211248F939F93EF93FF9390917A
:10026000C600E0911E0181E08E0FF0E0E15EFE4FDE
:10027000908380931E01FF91EF919F918F910F903A
:100280000FBE0F901F9018951F920F920FB60F92EE
:1002900011248F939F93EF93FF9390911C01809172
:1002A0001D01981769F081E0890F87FD80E0E82F34
:1002B000F0E0E159FC4F90819093C60080931C01BF
:1002C00090911D01891305C08091C1008F7D80939D
:1002D000C100FF91EF919F918F910F900FBE0F90F2
:1002E0001F901895CF92DF92EF92FF921F93CF93BA
:1002F000DF9383E40E94E5078091FA039091FB036A
:100300009827892798279595879595958795909310
:10031000B8028093B7028091F8039091F90398276F
:100320008927982791958195910995958795959518
:1003300087959093BA028093B9028091FC039091C3
:10034000FD0398278927982791958195910995957F
:100350008795959587959093BC028093BB02809179
:10036000CB029091CC020097E9F110910504A7EB24
:10037000B2E0E3E6F3E0CDE5D3E02FE633E081152C
:1003800042E0940721F410821182128213824D916F
:100390005D91052E000C660B770BC080D180E2804A
:1003A000F3804C0D5D1D6E1D7F1D41935193619334
:1003B0007193032E39E075956795579547953A9552
:1003C000D1F7302D499359938130910509F413E009
:1003D0002E173F07A1F61093050401979093CC02C6
:1003E0008093CB02CDE5D3E0E7EBF2E0A7E5B3E005
:1003F0008991999120813181281B390B4D915C9114
:100400001197CA01805293402817390734F0805C55
:10041000994F281739070CF4C901819391938D9353
:100420009D9382E0ED3BF80719F7DF91CF911F9183
:10043000FF90EF90DF90CF9008958093BC008FEFF6
:100440009091BC0097FD0DC08150D1F71092BC0077
:1004500080912F0290913002019690933002809308
:100460002F020895CF93C82F84EA0E941D02C093E3
:10047000BB0084E8CF910C941D021F920F920FB61F
:100480000F9211242F933F934F935F936F937F931A
:100490008F939F93AF93BF93CF93DF93EF93FF938C
:1004A000C9B1D0915603DC270E9471007894C093A3
:1004B0005603D2FF18C0C2FD12C0209146033091EE
:1004C0004703AB01421B530B9A014558534043313C
:1004D000554048F4309305012093040104C0709303
:1004E000470360934603D4FF18C0C4FD12C0209197
:1004F000480330914903AB01421B530B9A01455805
:1005000053404331554048F430930901209308018A
:1005100004C07093490360934803D5FF18C0C5FD1C
:1005200012C020914A0330914B03AB01421B530B85
:100530009A01455853404331554048F430930B01DC
:1005400020930A0104C070934B0360934A03D6FFC3
:1005500018C0C6FD12C020914C0330914D03AB0171
:10056000421B530B9A01455853404331554048F4C0
:1005700030930D0120930C0104C070934D036093E0
:100580004C03D7FF17C0C7FD11C020914E03309117
:100590004F03621B730BCB01855893408331954009
:1005A00048F470930F0160930E0104C070934F03E1
:1005B00060934E03FF91EF91DF91CF91BF91AF9187
:1005C0009F918F917F916F915F914F913F912F916B
:1005D0000F900FBE0F901F9018956150A0F02091C2
:1005E000740230E0F901EE58FD4F408151E0540FA4
:1005F00050832F5C3D4FF901E40FF11D2081FC0178
:100600002193CF01EACF08952091740230E0D901FF
:10061000A35EBE4F9C919F5F97FD90E0F901E15969
:10062000FC4FE90FF11D80839C93F901ED58FD4FBC
:1006300090818927808308950F931F93CF938C0116
:10064000C62FCC2339F0F80181918F010E94040359
:10065000C150F7CFCF911F910F910895E09174028F
:10066000F0E0ED58FD4F80810E940403E1ECF0E0E2
:100670008081806280830895CF93DF93D82FC62F27
:1006800084E20E9404038DE40E940403D11102C09D
:100690008EE301C081E20E940403E0917402F0E065
:1006A000ED58FD4F10828C2F0E940403E0917402DC
:1006B000F0E0EF58FD4F8081DF91CF910C9404035F
:1006C00060E080E00E943C030C942E030F931F9384
:1006D000CF938C01C62F80E00E943C036C2FC80191
:1006E0000E941C03CF911F910F910C942E03CF9366
:1006F000DF93EC010E940409682F80E00E943C0314
:10070000FE018491882329F084910E94040321969C
:10071000F7CFDF91CF910C942E03E5E9F2E08081D1
:10072000918123E0959587952A95E1F7909389002B
:10073000809388008281938133E0959587953A95DF
:10074000E1F790938B0080938A008481958143E048
:10075000959587954A95E1F78093B30086819781B7
:1007600053E0959587955A95E1F78093B4000895E5
:100770009B01AC01AA27429FB0015302C001340380
:100780009A0B700D811D9A1F52039A0B700D811DDB
:100790009A1F112408956F927F928F929F92AF9229
:1007A000BF92CF92DF92EF92FF920F931F93CF935E
:1007B000DF93EC018B016A807B80CE80DF80EA844E
:1007C000FB84B301F801808191810E94B8034B0141
:1007D0005C01B601F801828193810E94B803860E04
:1007E000971EA81EB91E88859985AA85BB8588197C
:1007F0009909AA09BB0988879987AA87BB87B70186
:10080000F801808191810E94B8034B015C01B6011F
:10081000F801848195810E94B803861A970AA80A74
:10082000B90A88819981AA81BB81880E991EAA1E66
:10083000BB1E88829982AA82BB82B701F80182819D
:1008400093810E94B8036B017C01B301F80184819C
:1008500095810E94B803DC01CB018C0D9D1DAE1D5E
:10086000BF1D0C811D812E813F81800F911FA21F12
:10087000B31F8C839D83AE83BF83DF91CF911F9184
:100880000F91FF90EF90DF90CF90BF90AF909F902F
:100890008F907F906F9008954F925F926F927F92AA
:1008A0008F929F92AF92BF92CF92DF92EF92FF9280
:1008B000CF93DF93CDB7DEB728970FB6F894DEBF9E
:1008C0000FBECDBF6B017C0149015A010E944C0A49
:1008D0002B013C01C982DA82EB82FC82F7FE0BC05D
:1008E00022273327A9012C193D094E095F092983C5
:1008F0003A834B835C838D829E82AF82B886B7FE3B
:100900000BC088279927DC0188199909AA09BB0916
:100910008D839E83AF83B88729813A814B815C8127
:100920008D819E81AF81B885281739074A075B07FB
:100930004CF4C501B4010E944C0A9B01AC01C301F7
:10094000B20106C0C501B4010E944C0AA301920184
:100950000E94A2092B013C019B01AC010E94D80A14
:1009600021ED31E944E650E40E9436099B01AC01D7
:10097000C301B2010E94A20923EC3DEC4FEF54E405
:100980000E94D80A0E94140AFB0149805A806B8099
:100990007C802D813E814F81588542165306640626
:1009A00075065CF4B7FE13C0F7FE03C0E850F740CD
:1009B0000EC0FB01E85FF84F0AC0F7FC03C024E853
:1009C00033E002C02CE73CEFF901E61BF70BCF0147
:1009D00028960FB6F894DEBF0FBECDBFDF91CF9142
:1009E000FF90EF90DF90CF90BF90AF909F908F904F
:1009F0007F906F905F904F90089540E150E060E0ED
:100A000070E08FE192E00E940D09EFE1F2E090E1E9
:100A100085E5915019F02191820FFBCF90912E0224
:100A2000981741F010921F0288E893E190932102F9
:100A3000809320020895CF92DF92EF92FF920F935E
:100A40001F93CF93DF93182F042FC0E0C62ED12C15
:100A5000E12CF12CC01791F0D0E0D11739F01D9A9C
:100A6000C701B6010E949600DF5FF7CF6CE370E02C
:100A700080E090E00E949600CF5FECCFDF91CF91B5
:100A80001F910F91FF90EF90DF90CF9008952091EC
:100A9000CB023091CC028091CD02232B89F482FFCE
:100AA0000FC0982F9274B1F482608093CD02809130
:100AB000C9029091CA029093C4028093C302089520
:100AC00081FD08C041E06FEF82E00E941B0581E0DC
:100AD0008093060408952F923F924F925F926F92F7
:100AE0007F928F929F92AF92BF92CF92DF92EF92BE
:100AF000FF920F931F93CF93DF93CDB7DEB72A9763
:100B00000FB6F894DEBF0FBECDBF10921F0244E7B0
:100B100050E060E170E08FEC92E00E940D09EFEC94
:100B2000F2E094E785E5915019F02191820FFBCF17
:100B3000909142039813CFC0E090EE02F12C009107
:100B4000ED029BE8C92E92E0D92E1A82198210E09C
:100B500028EA822E24E0922EA12CB12C49815A81C0
:100B6000449F9001459F300D300D11242F503109C5
:100B70002E9DC0012F9D900D3E9D900D11248A50F9
:100B80009A4F849FD001859FB00D949FB00D112482
:100B900098010E94950BA50194010E94670BF60134
:100BA000219331936F0129813A812F5F3F4F3A831F
:100BB00029832530310591F63091F2023A8704E617
:100BC000031B84E6389FA00111245C834B83809132
:100BD000F302882E912CA12CB12C60903D037090D3
:100BE0003E032AE337E0F901E619F709FE83ED83B6
:100BF000FA85F195F98725E732E03A8329831EE6E5
:100C00003A85131B482F50E058874F8380E1C82E48
:100C100087E2D82EE12CF12C5985151614F04A855F
:100C200001C0402F89858802D00111242F81388589
:100C30000E94950B1B012C01242F30E0D9010E944A
:100C4000860B9B01AC01C201B1010E94670BDA0166
:100C5000C9018C599F4FAF4FBF4FAC01BD0148191F
:100C600059096A097B09E9858E2FEE0F990B849F3C
:100C7000D001859FB00D949FB00D11242B813C8134
:100C8000A20FB31F2D813E810E94860BA701960102
:100C90000E94450B260D371DE981FA81219331937E
:100CA000FA83E983F985F65FF9871F13B5CFA09121
:100CB0003B03B0913C0320E432E44FE050E00E945B
:100CC0009C0B609318017093190180931A01909303
:100CD0001B0181E00BC043E064E686E00E941B0537
:100CE00083E0809305040E94B40680E02A960FB644
:100CF000F894DEBF0FBECDBFDF91CF911F910F9152
:100D0000FF90EF90DF90CF90BF90AF909F908F902B
:100D10007F906F905F904F903F902F900895CF936A
:100D2000C82F10921F02EFECF2E094E785E5915096
:100D300019F02191820FFBCF8093420344E750E0EA
:100D400060E170E08FEC92E00E941D090E946B054B
:100D5000C13029F441E064E18FE00E941B0581E08D
:100D600080930504CF910895EFECF2E081E2808357
:100D70002EE1218397E192838383248395832AE55F
:100D8000258B9AE0968B34E6378B34E436833DE24C
:100D90003783108630E4318739E1328748E1438771
:100DA0004FE044871586168642E247874EE0408B27
:100DB00045E3418B328B838B83E5848B88E2808F84
:100DC000138E148E158E268F81E4878F10A211A2A8
:100DD00012A282E383A314A212A611A614A613A63C
:100DE00016A615A610AA17A612AA11AA16A215A22F
:100DF00010A617A213AA2AE431E030933C032093F3
:100E00003B032EE734E030933E0320933D03909361
:100E10003F0388E790E0909341038093400380E094
:100E20000C948F0680915E04882319F02898109204
:100E30005E040895CF92DF92EF92FF920F931F937B
:100E4000CF93DF93E0910904E11117C0E1E0E09353
:100E500009049093360480933504709338046093AA
:100E6000370450933A044093390410933C040093A0
:100E70003B0430933E0420933D04E0912704E3308B
:100E800030F5F0E0EE0FFF1FEB5CFB4FC081D1812E
:100E9000209709F44CC080915E04811169C0C09113
:100EA0003D04D0913E040E94D000009116041091A0
:100EB000170420911804309119040C0F1D1F211DD7
:100EC000311D601771078207930718F530C0C09075
:100ED0001604D0901704E0901804F09019040E94B2
:100EE000D00020913B0430913C04DC01CB01821BFB
:100EF000930BA109B109C816D906EA06FB06B8F496
:100F000010922704109209041092FE031092050417
:100F100025C081E080935E04289A0E94D0006093EF
:100F200016047093170480931804909319049091F9
:100F30000E0480912704913051F0E82FF0E0EE0F7D
:100F4000FF1FEB5CFB4F20813181232BA9F5833000
:100F500018F48F5F8093270410920E04DF91CF91D5
:100F60001F910F91FF90EF90DF90CF900C9412079C
:100F70000E94D000009116041091170420911804CB
:100F8000309119040C0F1D1F211D311D60177107B1
:100F90008207930760F210925E0428980E94D000A6
:100FA00060931604709317048093180490931904A7
:100FB00081E080930E04BBCFDF91CF911F910F9101
:100FC000FF90EF90DF90CF9008950F931F93CF93F2
:100FD000C82F80ED0E943202C093BB0084E80E94BB
:100FE0001D0281ED0E94320208EF13E0C6E0C150FD
:100FF00049F084EC0E941D028091BB00F8018193AE
:101000008F01F5CF84E80E941D028091BB0094E916
:101010009093BC008093FD03CF911F910F91089591
:101020000F931F93CF93DF93082F162F80ED0E940D
:101030003202CBEBD0E0088384E80E941D021883C3
:1010400084E80E941D0284E98093BC00DF91CF9167
:101050001F910F91089590E0FC01E057FF4F2491FC
:10106000FC01E458FF4F8491882399F090E0880FA9
:10107000991FFC01EE58FF4FA591B491FC01E8596E
:10108000FF4F859194918FB7F894EC91E22BEC93FC
:101090008FBF0895789484B5826084BD84B58160E3
:1010A00084BD85B5826085BD85B5816085BD809133
:1010B0006E00816080936E001092810080918100AB
:1010C00082608093810080918100816080938100A3
:1010D000809180008160809380008091B100846065
:1010E0008093B1008091B00081608093B0008091C6
:1010F0007A00846080937A0080917A008260809385
:101100007A0080917A00816080937A0080917A00E1
:10111000806880937A001092C10082E08093C000C2
:101120001092C50080E18093C4008091C10088695D
:101130008093C1008DE00E942B0888E00E942B085C
:10114000C0E1D1E089910E942B0881E0C431D80729
:10115000C9F7809180008068809380008091800032
:101160008062809380008091B00080688093B0009E
:101170008091B00080628093B00080ED97E0909302
:101180009602809395029093980280939702909391
:101190009A028093990290939C0280939B020E94F2
:1011A0008D0342E064E182E00E941B0560EA7FE07B
:1011B00080E090E00E94960088EE93E09093960283
:1011C00080939502909398028093970290939A024D
:1011D0008093990290939C0280939B020E948D03BE
:1011E00042E064E183E00E941B0568E873E180E06F
:1011F00090E00E94960042E064E184E00E941B05BA
:1012000082E080930504F1CFFC0105900020E9F70E
:10121000809590958E0F9F1F0895DC01CB01FC01F6
:10122000F999FECF06C0F2BDE1BDF89A319600B43F
:101230000D9241505040B8F70895DC01CB0103C036
:101240002D910E94280941505040D0F70895262F33
:10125000F999FECF1FBA92BD81BD20BD0FB6F8949B
:10126000FA9AF99A0FBE019608955058BB27AA27FB
:101270000E944D090C949E0A0E94900A38F00E9428
:10128000970A20F039F49F3F19F426F40C948D0A44
:101290000EF4E095E7FB0C94870AE92F0E94AF0A51
:1012A00058F3BA17620773078407950720F079F49B
:1012B000A6F50C94D10A0EF4E0950B2EBA2FA02DB2
:1012C0000B01B90190010C01CA01A0011124FF27F3
:1012D000591B99F0593F50F4503E68F11A16F040EE
:1012E000A22F232F342F4427585FF3CF46953795ED
:1012F0002795A795F0405395C9F77EF41F16BA0BB2
:10130000620B730B840BBAF09150A1F0FF0FBB1F5F
:10131000661F771F881FC2F70EC0BA0F621F731FA8
:10132000841F48F4879577956795B795F7959E3F05
:1013300008F0B0CF9395880F08F09927EE0F979596
:10134000879508950E94B6090C949E0A0E94970AF8
:1013500058F00E94900A40F029F45F3F29F00C9465
:10136000870A51110C94D20A0C948D0A0E94AF0A7C
:1013700068F39923B1F3552391F3951B550BBB27C4
:10138000AA2762177307840738F09F5F5F4F220F09
:10139000331F441FAA1FA9F335D00E2E3AF0E0E800
:1013A00032D091505040E695001CCAF72BD0FE2F4A
:1013B00029D0660F771F881FBB1F261737074807DE
:1013C000AB07B0E809F0BB0B802DBF01FF27935896
:1013D0005F4F3AF09E3F510578F00C94870A0C94C9
:1013E000D20A5F3FE4F3983ED4F3869577956795EC
:1013F000B795F7959F5FC9F7880F911D96958795CB
:1014000097F90895E1E0660F771F881FBB1F6217E9
:1014100073078407BA0720F0621B730B840BBA0BA7
:10142000EE1F88F7E09508950E941B0A6894B11199
:101430000C94D20A08950E94B70A88F09F5798F03A
:10144000B92F9927B751B0F0E1F0660F771F881FC9
:10145000991F1AF0BA95C9F714C0B13091F00E94E3
:10146000D10AB1E008950C94D10A672F782F88270C
:10147000B85F39F0B93FCCF3869577956795B3950A
:10148000D9F73EF490958095709561957F4F8F4F79
:101490009F4F0895E89409C097FB3EF4909580957E
:1014A000709561957F4F8F4F9F4F9923A9F0F92F2A
:1014B00096E9BB279395F695879577956795B795A8
:1014C000F111F8CFFAF4BB0F11F460FF1BC06F5F8E
:1014D0007F4F8F4F9F4F16C0882311F096E911C0A0
:1014E000772321F09EE8872F762F05C0662371F0C1
:1014F00096E8862F70E060E02AF09A95660F771FD5
:10150000881FDAF7880F9695879597F9089597F9C8
:101510009F6780E870E060E008959FEF80EC089599
:1015200000240A94161617061806090608950024C2
:101530000A9412161306140605060895092E03943C
:10154000000C11F4882352F0BB0F40F4BF2B11F4B0
:1015500060FF04C06F5F7F4F8F4F9F4F089557FD0F
:101560009058440F551F59F05F3F71F04795880F11
:1015700097FB991F61F09F3F79F0879508951216A8
:1015800013061406551FF2CF4695F1DF08C0161654
:1015900017061806991FF1CF869571056105089405
:1015A0000895E894BB2766277727CB0197F908951C
:1015B0000E94EB0A0C949E0A0E94900A38F00E9446
:1015C000970A20F0952311F00C94870A0C948D0A49
:1015D00011240C94D20A0E94AF0A70F3959FC1F3B4
:1015E000950F50E0551F629FF001729FBB27F00DD1
:1015F000B11D639FAA27F00DB11DAA1F649F662726
:10160000B00DA11D661F829F2227B00DA11D621F74
:10161000739FB00DA11D621F839FA00D611D221F2E
:10162000749F3327A00D611D231F849F600D211D12
:10163000822F762F6A2F11249F5750409AF0F1F095
:1016400088234AF0EE0FFF1FBB1F661F771F881FFE
:1016500091505040A9F79E3F510580F00C94870AA5
:101660000C94D20A5F3FE4F3983ED4F386957795C5
:101670006795B795F795E7959F5FC1F7FE2B880FA4
:10168000911D9695879597F90895A1E21A2EAA1BA8
:10169000BB1BFD010DC0AA1FBB1FEE1FFF1FA21722
:1016A000B307E407F50720F0A21BB30BE40BF50B1F
:1016B000661F771F881F991F1A9469F760957095A8
:1016C000809590959B01AC01BD01CF010895052E39
:1016D00097FB1EF400940E947E0B57FD07D00E94DA
:1016E000450B07FC03D04EF40C947E0B50954095AF
:1016F000309521953F4F4F4F5F4F089590958095BE
:10170000709561957F4F8F4F9F4F0895A29FB001B5
:10171000B39FC001A39F700D811D1124911DB29F25
:10172000700D811D1124911D08950E94860BB7FF35
:101730000895821B930B08950E94860BA59F900D20
:10174000B49F900DA49F800D911D11240895F894CD
:02175000FFCFC9
:10175200DE05DE05DE05DE05DE05DE05DE05DE056F
:08176200090A0B030605100C37
:00000001FF
