:100000000C94AC000C94C9000C94C9000C94C90069
:100010000C94C9000C946A030C94C9000C94C90098
:100020000C94C9000C94C9000C94C9000C94C9002C
:100030000C94C9000C94C9000C94C9000C94C9001C
:100040000C9436010C94C9000C9480010C949E0110
:100050000C94C9000C94C9000C94C9000C94C900FC
:100060000C94C9000C94C90008000000BE922449F9
:10007000123EABAAAA2ABECDCCCC4C3E00000080DA
:10008000BEABAAAAAA3E00000000BF000000803F4D
:100090000000000000084178D3BB4387D1133D190D
:1000A0000E3CC3BD4282AD2B3E68EC8276BED98F3A
:1000B000E1A93E4C80EFFFBE01C4FF7F3F0000007E
:1000C000000000010203050D41524D3B414E474CDB
:1000D000453B484F52495A4F4E3B4241524F3B4D90
:1000E00041473B4245455045523B00524F4C4C3BEB
:1000F00050495443483B5941573B414C543B506F46
:10010000733B506F73523B4E6176523B4C455645A4
:100110004C3B4D41473B56454C3B00000000002501
:100120000028002B0000000000240027002A000403
:10013000040404040404040202020202020303038E
:100140000303030102040810204080010204081088
:10015000200102040810200011241FBECFEFD8E0B8
:10016000DEBFCDBF11E0A0E0B1E0E4EBF3E402C0FC
:1001700005900D92A235B107D9F726E0A2E5B1E0CE
:1001800001C01D92A235B207E1F70E9453090C94F9
:10019000D8210C9400003FB7F8948091DA05909133
:1001A000DB05A091DC05B091DD0526B5A89B05C057
:1001B0002F3F19F00196A11DB11D3FBFBA2FA92FE6
:1001C000982F8827820F911DA11DB11DBC01CD0163
:1001D00042E0660F771F881F991F4A95D1F708954F
:1001E0008F929F92AF92BF92CF92DF92EF92FF9247
:1001F0006B017C010E94CB004B015C01C114D10456
:10020000E104F104F1F00E94CB00DC01CB0188197C
:100210009909AA09BB09883E9340A105B10570F36D
:1002200021E0C21AD108E108F10888EE880E83E0C7
:10023000981EA11CB11CC114D104E104F10419F7EA
:10024000DDCFFF90EF90DF90CF90BF90AF909F9069
:100250008F9008952FB7F8946091D6057091D705C7
:100260008091D8059091D9052FBF08951F920F92C4
:100270000FB60F9211242F933F938F939F93AF93B9
:10028000BF938091D6059091D705A091D805B091E4
:10029000D9053091D50523E0230F2D3720F40196A1
:1002A000A11DB11D05C026E8230F0296A11DB11D99
:1002B0002093D5058093D6059093D705A093D805B4
:1002C000B093D9058091DA059091DB05A091DC050A
:1002D000B091DD050196A11DB11D8093DA059093C3
:1002E000DB05A093DC05B093DD05BF91AF919F9135
:1002F0008F913F912F910F900FBE0F901F901895E7
:100300001F920F920FB60F9211248F939F93EF932A
:10031000FF939091C600E0916A0181E08E0FF0E0BA
:10032000E559FE4F908380936A01FF91EF919F9171
:100330008F910F900FBE0F901F9018951F920F92E4
:100340000FB60F9211248F939F93EF93FF93909189
:10035000680180916901981769F081E0890F87FD34
:1003600080E0E82FF0E0EB5AFA4F90819093C600BE
:100370008093680190916901891305C08091C10043
:100380008F7D8093C100FF91EF919F918F910F908E
:100390000FBE0F901F9018958093BC008FEF909127
:1003A000BC0097FD0DC08150D1F71092BC00809128
:1003B0006B0290916C02019690936C0280936B0299
:1003C0000895CF93C82F84EA0E94CC01C093BB004C
:1003D00084E8CF910C94CC010F931F93CF93DF93BC
:1003E000062F142F880F0E94E101CBEBD0E0088389
:1003F00084E80E94CC01188384E80E94CC0184E93F
:100400008093BC00DF91CF911F910F9108954EE230
:1004100064EF87E70E94EC018EEE0E94E10186EF17
:100420008093BB0084E80E94CC0184E98093BC00E7
:100430000895EF92FF920F931F93CF93DF93082FAE
:10044000F62EEA01122F880F0E94E101F092BB0004
:1004500084E80E94CC01802F880F81600E94E10116
:100460007E01012F015049F084EC0E94CC01809163
:10047000BB00F70181937F01F5CF1150C10FD11D52
:1004800084E80E94CC018091BB0094E99093BC0069
:100490008883DF91CF911F910F91FF90EF90089586
:1004A000CF92DF92EF92FF921F93CF93DF9326E0DC
:1004B0004EE551E063E488E60E94190280916001F4
:1004C000909161019827892798279595879595950B
:1004D00087959093F4028093F30280915E0190914E
:1004E0005F0198278927982791958195910995957E
:1004F0008795959587959093F6028093F502809164
:100500006201909163019827892798279195819599
:10051000910995958795959587959093F802809385
:10052000F70280910703909108030097E9F1109179
:10053000F505A3EFB2E0E9E4F5E0C3E4D5E025E595
:1005400035E0811542E0940721F410821182128275
:1005500013824D915D91052E000C660B770BC080C8
:10056000D180E280F3804C0D5D1D6E1D7F1D419397
:10057000519361937193032E39E075956795579563
:1005800047953A95D1F7302D49935993813091058C
:1005900009F413E02E173F07A1F61093F505019714
:1005A0009093080380930703C3E4D5E0E3EFF2E000
:1005B000ADE3B5E08991999120813181281B390BF8
:1005C0004D915C911197CA018052934028173907C9
:1005D00034F0805C994F281739070CF4C9018193D6
:1005E00091938D939D9382E0E93FF80719F7DF918E
:1005F000CF911F91FF90EF90DF90CF90089526E06C
:100600004EE551E063E08EE10E941902E1EEF2E076
:10061000AEE5B1E08D919C91119798278927982795
:100620009587848714968D919C9115979827892793
:1006300098279787868712968D919C911397982774
:1006400089279827919581959109918B808B0895A1
:100650000F931F93CF93482F60E08EE10E94EC012F
:10066000CAE041E062E08EE10E94EC0164E670E0E5
:1006700080E090E00E94F0000E94FF02ADEEB2E048
:10068000E2E5F1E08D919D9197FF03C091958195F1
:100690009109AC01092E000C660B770B00811181CA
:1006A00022813381400F511F621F731F4193519369
:1006B000619371938130904144F481E0EE35F80705
:1006C00009F7C15071F681E001C080E0CF911F9120
:1006D0000F9108951F920F920FB60F9211242F932E
:1006E0003F934F935F936F937F938F939F93AF93BA
:1006F000BF93CF93DF93EF93FF93C9B1D0913C05A4
:10070000DC270E94CB007894C0933C05D2FF18C030
:10071000C2FD12C020912C0530912D05AB01421B6A
:10072000530B9A01455853404331554048F4309398
:1007300005012093040104C070932D0560932C05DE
:10074000D4FF18C0C4FD12C020912E0530912F0592
:10075000AB01421B530B9A0145585340433155405E
:1007600048F4309309012093080104C070932F05C9
:1007700060932E05D5FF18C0C5FD12C0209130052D
:1007800030913105AB01421B530B9A014558534040
:100790004331554048F430930B0120930A0104C0C3
:1007A0007093310560933005D6FF18C0C6FD12C0A6
:1007B0002091320530913305AB01421B530B9A0156
:1007C000455853404331554048F430930D01209330
:1007D0000C0104C07093330560933205D7FF17C036
:1007E000C7FD11C02091340530913505621B730B94
:1007F000CB01855893408331954048F470930F01A5
:1008000060930E0104C07093350560933405FF9129
:10081000EF91DF91CF91BF91AF919F918F917F9198
:100820006F915F914F913F912F910F900FBE0F905D
:100830001F9018956150A0F02091B00230E0F901AE
:10084000E255FD4F408151E0540F508323593D4FF5
:10085000F901E40FF11D2081FC012193CF01EACFC2
:1008600008952091B00230E0D901A759BE4F9C9164
:100870009F5F97FD90E0F901EB5AFA4FE90FF11DE8
:1008800080839C93F901E155FD4F908189278083F6
:1008900008950F931F93CF938C01C62FCC2339F06B
:1008A000F80181918F010E943104C150F7CFCF919F
:1008B0001F910F910895E091B002F0E0E155FD4FD6
:1008C00080810E943104E1ECF0E0808180628083CD
:1008D0000895CF93DF93D82FC62F84E20E9431046E
:1008E0008DE40E943104D11102C08EE301C081E287
:1008F0000E943104E091B002F0E0E155FD4F10821A
:100900008C2F0E943104E091B002F0E0E355FD4FDE
:100910008081DF91CF910C94310460E080E00E94EF
:1009200069040C945B040F931F93CF938C01C62F23
:1009300080E00E9469046C2FC8010E944904CF9195
:100940001F910F910C945B04CF93DF93EC010E94F5
:10095000701E682F80E00E946904FE018491882344
:1009600029F084910E9431042196F7CFDF91CF9135
:100970000C945B04E1EDF2E08081918123E0959598
:1009800087952A95E1F7909389008093880082816A
:10099000938133E0959587953A95E1F790938B0095
:1009A00080938A008481958143E0959587954A9547
:1009B000E1F78093B3008681978153E09595879501
:1009C0005A95E1F78093B40008959B01AC01AA27E2
:1009D000429FB0015302C00134039A0B700D811D78
:1009E0009A1F52039A0B700D811D9A1F11240895AE
:1009F0006F927F928F929F92AF92BF92CF92DF922F
:100A0000EF92FF920F931F93CF93DF93EC018B0133
:100A10006A807B80CE80DF80EA84FB84B301F801AA
:100A2000808191810E94E5044B015C01B601F801CF
:100A3000828193810E94E504860E971EA81EB91E2E
:100A400088859985AA85BB8588199909AA09BB0952
:100A500088879987AA87BB87B701F8018081918130
:100A60000E94E5044B015C01B601F8018481958187
:100A70000E94E504861A970AA80AB90A8881998112
:100A8000AA81BB81880E991EAA1EBB1E88829982EC
:100A9000AA82BB82B701F801828193810E94E5049A
:100AA0006B017C01B301F801848195810E94E5040A
:100AB000DC01CB018C0D9D1DAE1DBF1D0C811D8168
:100AC0002E813F81800F911FA21FB31F8C839D83B6
:100AD000AE83BF83DF91CF911F910F91FF90EF9075
:100AE000DF90CF90BF90AF909F908F907F906F904E
:100AF00008954F925F926F927F928F929F92AF92E2
:100B0000BF92CF92DF92EF92FF92CF93DF93CDB758
:100B1000DEB728970FB6F894DEBF0FBECDBF6B01CE
:100B20007C0149015A010E94B81F2B013C01C98276
:100B3000DA82EB82FC82F7FE0BC022273327A90161
:100B40002C193D094E095F0929833A834B835C8345
:100B50008D829E82AF82B886B7FE0BC08827992708
:100B6000DC0188199909AA09BB098D839E83AF838B
:100B7000B88729813A814B815C818D819E81AF81CB
:100B8000B885281739074A075B074CF4C501B4013B
:100B90000E94B81F9B01AC01C301B20106C0C50190
:100BA000B4010E94B81FA30192010E940E1F2B01E5
:100BB0003C019B01AC010E94942021ED31E944E607
:100BC00050E40E94A21E9B01AC01C301B2010E942D
:100BD0000E1F23EC3DEC4FEF54E40E9494200E9442
:100BE000801FFB0149805A806B807C802D813E8173
:100BF0004F81588542165306640675065CF4B7FEAD
:100C000013C0F7FE03C0E850F7400EC0FB01E85FD9
:100C1000F84F0AC0F7FC03C024E833E002C02CE719
:100C20003CEFF901E61BF70BCF0128960FB6F894BD
:100C3000DEBF0FBECDBFDF91CF91FF90EF90DF9071
:100C4000CF90BF90AF909F908F907F906F905F906C
:100C50004F90089540E150E060E070E08EED95E047
:100C60000E94791EEEEDF5E090E185E5915019F0D6
:100C70002191820FFBCF9091ED05981741F01092D2
:100C8000DE0588E893E19093E0058093DF05089501
:100C9000CF92DF92EF92FF920F931F93CF93DF9348
:100CA000182F042FC0E0C62ED12CE12CF12CC01738
:100CB00091F0D0E0D11739F01D9AC701B6010E941A
:100CC000F000DF5FF7CF6CE370E080E090E00E941F
:100CD000F000CF5FECCFDF91CF911F910F91FF908C
:100CE000EF90DF90CF900895209107033091080393
:100CF00080910903232B89F482FF0FC0982F9274EF
:100D0000B1F48260809309038091050390910603FA
:100D1000909300038093FF02089581FD08C041E095
:100D20006FEF82E00E94480681E08093F605089507
:100D30002F923F924F925F926F927F928F929F92EB
:100D4000AF92BF92CF92DF92EF92FF920F931F93D9
:100D5000CF93DF93CDB7DEB72A970FB6F894DEBFF7
:100D60000FBECDBF1092DE0548E750E060E170E0B5
:100D70008BE093E00E94791EEBE0F3E098E785E5D5
:100D8000915019F02191820FFBCF9091820398131B
:100D9000CFC0E0902A03F12C0091290397ECC92ED3
:100DA00092E0D92E1A82198210E028EA822E24E0DD
:100DB000922EA12CB12C49815A81449F9001459FCC
:100DC000300D300D11242F5031092E9DC0012F9D63
:100DD000900D3E9D900D11248A509A4F849FD00112
:100DE000859FB00D949FB00D112498010E94AA21F7
:100DF000A50194010E947C21F601219331936F019A
:100E000029813A812F5F3F4F3A832983253031056D
:100E100091F630912E033A8704E6031B84E6389F4F
:100E2000A00111245C834B8380912F03882E912C89
:100E3000A12CB12C60907D0370907E032AE337E0F3
:100E4000F901E619F709FE83ED83FA85F195F98733
:100E500021EB32E03A8329831EE63A85131B482FA3
:100E600050E058874F8380E1C82E87E2D82EE12CCE
:100E7000F12C5985151614F04A8501C0402F89853B
:100E80008802D00111242F8138850E94AA211B01DC
:100E90002C01242F30E0D9010E949B219B01AC0141
:100EA000C201B1010E947C21DA01C9018C599F4F16
:100EB000AF4FBF4FAC01BD01481959096A097B0901
:100EC000E9858E2FEE0F990B849FD001859FB00D81
:100ED000949FB00D11242B813C81A20FB31F2D8153
:100EE0003E810E949B21A70196010E945A21260D56
:100EF000371DE981FA8121933193FA83E983F985DA
:100F0000F65FF9871F13B5CFA0917B03B0917C03E7
:100F100020E432E44FE050E00E94B121609364018C
:100F200070936501809366019093670181E00BC027
:100F300043E064E686E00E94480683E08093F5057E
:100F40000E94E10780E02A960FB6F894DEBF0FBE3C
:100F5000CDBFDF91CF911F910F91FF90EF90DF9068
:100F6000CF90BF90AF909F908F907F906F905F9049
:100F70004F903F902F900895CF93C82F1092DE0589
:100F8000EBE0F3E098E785E5915019F02191820FAD
:100F9000FBCF8093820348E750E060E170E08BE094
:100FA00093E00E94891E0E949806C13029F441E016
:100FB00064E18FE00E94480681E08093F505CF91BF
:100FC0000895EBE0F3E081E280832EE1218397E155
:100FD00092838383248395832AE5258B9AE0968BDD
:100FE00034E6378B34E436833DE23783108630E4D1
:100FF000318739E1328748E143874FE044871586DE
:10100000168642E247874EE0408B45E3418B328BA8
:10101000838B83E5848B88E2808F138E148E158EEC
:10102000268F81E4878F10A211A212A282E383A3EC
:1010300014A212A611A614A613A616A615A610AAE7
:1010400017A612AA11AA14AA13AA16A215A210A6CC
:1010500017A215AA2AE431E030937C0320937B0386
:101060002EE734E030937E0320937D0328E230E0C6
:1010700037AB26AB90937F0388E790E09093810392
:101080008093800380E00C94BC0780914E068823F7
:1010900019F0289810924E060895CF92DF92EF92A1
:1010A000FF920F931F93CF93DF93E091F905E11126
:1010B00017C0E1E0E093F90590932606809325069A
:1010C000709328066093270650932A0640932906BA
:1010D00010932C0600932B0630932E0620932D069A
:1010E000E0911706E33030F5F0E0EE0FFF1FEB5D07
:1010F000F94FC081D181209709F44CC080914E06F0
:10110000811169C0C0912D06D0912E060E942A013E
:1011100000910606109107062091080630910906F5
:101120000C0F1D1F211D311D6017710782079307CA
:1011300018F530C0C0900606D0900706E09008066B
:10114000F09009060E942A0120912B0630912C066E
:10115000DC01CB01821B930BA109B109C816D9068A
:10116000EA06FB06B8F4109217061092F9051092E1
:10117000EE051092F50525C081E080934E06289A71
:101180000E942A0160930606709307068093080662
:10119000909309069091FE0580911706913051F0C9
:1011A000E82FF0E0EE0FFF1FEB5DF94F208131815A
:1011B000232BA9F5833018F48F5F809317061092C4
:1011C000FE05DF91CF911F910F91FF90EF90DF907F
:1011D000CF900C9445080E942A01009106061091B8
:1011E000070620910806309109060C0F1D1F211DCE
:1011F000311D601771078207930760F210924E0647
:1012000028980E942A01609306067093070680932F
:1012100008069093090681E08093FE05BBCFDF911D
:10122000CF911F910F91FF90EF90DF90CF90089595
:10123000EEEDF5E090E185E5915019F02191820FF6
:10124000FBCF8093ED0540E150E060E070E08EED73
:1012500095E00E94891E41E064E18FE00E9448060B
:1012600081E08093F505089590E0FC01ED5BFE4F71
:101270002491FC01E15DFE4F8491882399F090E078
:10128000880F991FFC01EB5DFE4FA591B491FC0105
:10129000E55EFE4F859194918FB7F894EC91E22B27
:1012A000EC938FBF0895CF93DF93CDB7DEB7EB9765
:1012B0000FB6F894DEBF0FBECDBF789484B58260C0
:1012C00084BD84B5816084BD85B5826085BD85B5EA
:1012D000816085BD80916E00816080936E00109268
:1012E00081008091810082608093810080918100E3
:1012F0008160809381008091800081608093800074
:101300008091B10084608093B1008091B0008160D1
:101310008093B00080917A00846080937A008091FD
:101320007A00826080937A0080917A008160809355
:101330007A0080917A00806880937A001092C100D0
:1013400082E08093C0001092C50080E18093C400C9
:101350008091C10088698093C1008DE00E943409AA
:1013600088E00E94340909E211E04DE2E42E41E0F8
:10137000F42ED8018D918D010E943409E016F106FA
:10138000C1F7809180008068809380008091800008
:101390008062809380008091B00080688093B0006C
:1013A0008091B00080628093B00088EE93E09093CB
:1013B000D2028093D1029093D4028093D30290936F
:1013C000D6028093D5029093D8028093D7020E94D0
:1013D000BA046CE271E080E090E00E94F0000E94AC
:1013E0002A061092DE050E9498068091DE05882369
:1013F00021F081508093DE05F6CF0E942A060E94DC
:1014000098064091DE054F5F68E282E00E94480640
:10141000E1E4F1E09BB1DF018191892B8BB99091DF
:101420006D008C91892B80936D00B1E0E634FB0751
:1014300089F784E08093680015E00CE024E0B22E88
:101440003EE5C32E31E0D32E449845981092B90062
:101450000093B800B092BC0010926C0210926B0224
:1014600040E86BE688E60E94EC0162E370E080E011
:1014700090E00E94F00043E06BE688E60E94EC01F9
:1014800040E06AE188E60E94EC0148E16BE188E611
:101490000E94EC0142E067E388E60E94EC016AE00A
:1014A00070E080E090E00E94F0006AE070E080E090
:1014B00090E00E94F00026E141E254E06AEA87E70A
:1014C0000E94190281E294E0FC013196DC01AE1722
:1014D000BF0730F42C9130813D9320833197F7CFB3
:1014E0000296E4E087339E0779F765E070E080E0DC
:1014F00090E00E94F0000E940702809128059091E0
:101500002905A0912A05B0912B0588579C4EAF4F15
:10151000BF4F80933E0490933F04A0934004B09348
:10152000410440E461E08EE10E94EC0141E062E0B0
:101530008EE10E94EC0164E670E080E090E00E94A1
:10154000F0000E94FF0281E10E942803F82E82E150
:101550000E942803811124C040E760E08EE10E94D0
:10156000EC0140E261E08EE10E94EC0140E062E0CB
:101570008EE10E94EC0164E670E080E090E00E9461
:10158000F00040E16CE188E60E94EC0180916B0282
:1015900090916C02892B41F1115009F055CF24C074
:1015A000FF20D1F282E5E82E81E0F82E90E1892E2D
:1015B00091E0992ED7016D917D918D919D917D0145
:1015C0000E94B81F9B01AC0160E070EA84E996E4D8
:1015D0000E940E1FF40161937193819391934F01C7
:1015E000CE14DF0439F7B8CF0E94CB007093FF040C
:1015F0006093FE0480E092E09093080380930703D9
:1016000088EC90E090930105809300058091090398
:1016100080688093090340902805509029056090C8
:101620002A0570902B05809126059091270592013F
:10163000281B390BC901181619060CF0C5C130EE6C
:10164000431A31EB530A50922705409226058091A8
:10165000B3038F5F833019F08093B30302C01092FD
:10166000B30306E4A02E01E0B02E23E833E046E108
:1016700055E06EE974E0DA0180E090E0DFB6F894BE
:10168000F50111915F01E12FF0E0EE0FFF1FE05037
:10169000FF4FE080F180DFBEF901C080D180028180
:1016A0001381F801EC0DFD1D8F010E5F1F4FF90135
:1016B000C480D580F801EC0DFD1DEE0DFF1DF695E3
:1016C000E795F695E795CD90DC90119713E0C11A58
:1016D000D108EC15FD0538F46F0112E0C10ED11CE4
:1016E0001196DC92CE92CD90DC90119713E0C10E52
:1016F000D11CCE16DF0620F432971196FC93EE93A0
:10170000D090B303FC01EE0FFF1FE80FF91FED0DA2
:10171000F11DEE0FFF1FED57FC4FF182E082E091CB
:101720009D04EE2369F0E150E0939D04FB010081EC
:1017300011810538F3E01F071CF011961C930E93DE
:1017400001962A5F3F4F12966E5F7F4F883091055A
:1017500009F094CF1EE1C12E15E0D12E10E0812FAB
:1017600090E09595879595958795182FDA012D919D
:101770003D91AD012D34B4E03B0724F010682C36C8
:1017800037400CF41064C416D50649F7809115054E
:10179000811308C0809114058A3F30F48F5F8093D5
:1017A000140502C0109214051093150580911C05B4
:1017B00090911D058D34944074F51092110510928E
:1017C0001005109213051092120510920C0510923C
:1017D0000D0510920E0510920F051092090510923A
:1017E000080510920B0510920A0580913403909120
:1017F0003503892B81F0909102058091090399238B
:1018000029F080FF03C00E94740605C081FF03C059
:101810008D7F8093090380911405843109F06CC099
:101820008091090381FF0EC020913403309135036C
:10183000232B09F061C01F3509F05EC08D7F8093B6
:1018400009035AC0173569F420E032E030930803E9
:10185000209307034AE050E05093010540930005B0
:1018600009C01B3639F40E94CB007093FF046093CB
:10187000FE0442C08091340390913503892B29F4F2
:101880001F3619F40E94740637C0173939F480E006
:1018900092E09093FD048093FC042EC0173A31F43B
:1018A00080910A03816080930A0326C01B3B31F4B8
:1018B0008091320390913303029607C0173B51F495
:1018C0008091320390913303029790933303809376
:1018D00032030DC01E3B11F00C94651E8091300345
:1018E000909131030296909331038093300381E00D
:1018F0000E94BC071092140580E090E000E010E028
:10190000D6016D917D916D0141E050E0653AB6E000
:101910007B0714F440E050E09C012E5F3F4F7A01BA
:1019200002C0EE0CFF1C2A95E2F7A1E0B0E06431A2
:10193000E5E07E0714F0A0E0B0E0AD01082E02C0A3
:10194000440F551F0A94E2F74E295F2965517540EF
:1019500021E030E06F38714010F020E030E0BC0151
:101960006F5F7F4F02C0220F331F6A95E2F7422B51
:10197000532B042B152B03968C30910509F624E389
:1019800033E0A2E0B5E0F901819191919F018023BC
:10199000912341E0892B09F440E04D93F5E0A83014
:1019A000BF0789F7909103058091090391110C9469
:1019B000CC1D2091FA043091FB042333310514F03F
:1019C0000C94CC1D0C94D81D8091E104823009F454
:1019D00043C330F4882359F0813009F404C12FC582
:1019E000833009F42AC5843009F427C528C581E06D
:1019F0008093E1048091C4039091C503A091C60334
:101A0000B091C703481659066A067B0608F4EBC076
:101A100010EA410E16E8511E11E0611E711C409241
:101A2000C4035092C5036092C6037092C7030E941C
:101A3000FF0280910A0381708F8B01EE12E0E0E1DA
:101A40002E2EE1E03E2EFEEDEF2EF5E0FF2EA7EE6E
:101A5000CA2EA2E0DA2ED1018D909D90AD90BD905E
:101A60001D01F80164857585072E000C880B990B04
:101A70000E94B81FA50194010E9494200E94801F1B
:101A8000D8011D967C936E931C97BF89B1110AC033
:101A9000F70127813085621B730BD8011D967C935B
:101AA0006E931C970E5F1F4FB2E0EB0EF11CC01639
:101AB000D10689F61F89112309F4C1C48091C0039E
:101AC0009091C103A091C203B091C303892B8A2BCB
:101AD0008B2B41F44092C0035092C1036092C20329
:101AE0007092C3038091C0039091C103A091C2037F
:101AF000B091C303481A590A6A0A7B0A20E84216C1
:101B000023EC520629EC620621E0720608F05BC065
:101B10001D9A4090C0035090C1036090C203709022
:101B2000C3038090C4039090C503A090C603B090F7
:101B3000C7032091EE05EAEBF3E074EB272E73E088
:101B4000372E05EE15E04DEE52E0481459046A04B4
:101B50007B0441F4DA018D919C9191838083D101C2
:101B60008D939C93DA018D919D91AD017F016081F0
:101B70007181861797071CF49183808321E0B1015E
:101B8000D101CD90DC901197C816D9061CF48D9325
:101B90009C9321E03296B2E02B0E311CD701ED90E0
:101BA000FC90DB018D919C918E0D9F1D95958795E5
:101BB000D8018D939D938D01B3E0E03CFB0729F69E
:101BC0002093EE053CC480910A038E7F80930A0324
:101BD0001092C0031092C1031092C2031092C3036B
:101BE0000E9418092CC48091E1048F5F8093E10466
:101BF00080913E0490913F04A0914004B091410433
:101C0000481659066A067B0608F426C2E0E74E0E1F
:101C1000E7E15E1E611C711C40923E0450923F043D
:101C2000609240047092410480913D04811179C01A
:101C30008FEE0E94E10184EC0E94CC018091BB00F8
:101C40008093380484E80E94CC018091BB0014E9A1
:101C50001093BC008093370444EF64EF87E70E9441
:101C6000EC018EEE0E94E10186EF8093BB0084E8D8
:101C70000E94CC011093BC0081E080933D04E09170
:101C80001C0421E02E0F253109F420E080911D0471
:101C900090911E04A0911F04B091200414E0E19FD4
:101CA000F0011124E853FC4F80839183A283B38316
:101CB000409154045091550460915604709157041A
:101CC000840F951FA61FB71F34E0239FF001112436
:101CD000E853FC4F4081518162817381841B950BD5
:101CE000A60BB70B8093540490935504A09356040D
:101CF000B093570420931C0480913E0490913F04BC
:101D0000A0914004B0914104885F9D4AAF4FBF4FFE
:101D100080933E0490933F04A0934004B093410409
:101D20008EC38FEE0E94E10184EC0E94CC01809171
:101D3000BB0080933B0484EC0E94CC018091BB00EB
:101D400080933A0484E80E94CC018091BB0094E91E
:101D50009093BC00809339040E94070220913704BD
:101D600030913804A90160E070E080912B049091DB
:101D70002C049A01AB01281B390B41095109A09190
:101D80002904B0912A040E94B1216B017C013FE03B
:101D9000F594E794D794C7943A95D1F760913304BA
:101DA00070913404CB01770FAA0BBB0BBC01CD01A2
:101DB0004BE0660F771F881F991F4A95D1F7209136
:101DC0003504309136048901330F220B330BA901FE
:101DD00098012C0D3D1D4E1D5F1D0E947C21C20EE1
:101DE000D31EE41EF51EAAE0B0E0A70196010E94F2
:101DF000B121DC01CB010896A11DB11D54E0B595C0
:101E0000A795979587955A95D1F790934F0480930E
:101E10004E0440EAC41A4FE0D40AE108F108A701D1
:101E20009601C701B6010E9436219B01AC016CE00E
:101E300055954795379527956A95D1F72F8B388F0C
:101E4000498F5A8FE0912104F0912204A09125043A
:101E5000B0912604A70196010E94BC214B015C01B0
:101E60007DE0B594A794979487947A95D1F7A09143
:101E70002D04B0912E042F89388D498D5A8D0E94E2
:101E8000BC21BB2797FDB095AB2F880D991DAA1DCE
:101E9000BB1D0296A11DB11D12E0B595A7959795A2
:101EA00087951A95D1F79C01AD0130584F4F5F4F80
:101EB000A0912704B09128040E94B1212B013C017C
:101EC0000FE076946794579447940A95D1F78090E1
:101ED000390490903A04A0903B04B0903C0485E013
:101EE000B694A794979487948A95D1F7A0912F04DC
:101EF000B09130042F89388D498D5A8D0E94BC21B4
:101F00009B01AC019BE055954795379527959A9590
:101F1000D1F72F8B388F498F5A8FA0912304B0911E
:101F20002404A70196010E94BC21DC01CB012BE017
:101F3000B595A795979587952A95D1F74F89588D8F
:101F4000698D7A8D480F591F6A1F7B1FCF01FF0FC4
:101F5000AA0BBB0B32E0880F991FAA1FBB1F3A9533
:101F6000D1F7840F951FA61FB71F43E0880F991F55
:101F7000AA1FBB1F4A95D1F7BC01CD016E5F7F4FF1
:101F80008F4F9F4F24E030E040E050E00E947C21E2
:101F9000D501C401821B930BA40BB50B9C01AD01B1
:101FA000AAE6B8E10E94B12197FD0BC0660F771F2A
:101FB000881F991FA30192010E945A2149015A01C9
:101FC0000AC0A30192010E945A2149015A01880CBA
:101FD000991CAA1CBB1C9927B7FC9A958B2D7A2DAE
:101FE000692D9B01AC010E9436219B01AC01AEED35
:101FF000BBE00E94B1216B017C01A3E4B3EEA5011B
:1020000094010E94BF21BB2797FDB095AB2F6701BC
:10201000FF24D7FCF094EF2CC80ED91EEA1EFB1E3D
:102020009FECC90E9EE0D91EE11CF11C04E0F59462
:10203000E794D794C7940A95D1F78C0C9D1CAE1CDD
:10204000BF1C80921D0490921E04A0921F04B092A7
:10205000200410923D04F3C18091E1048F5F8093CE
:10206000E1040E94CB0020915804309159047B0177
:10207000E21AF30AA8EAEA16A1E6FA0608F4DDC1B4
:102080007093590460935804009100051091010564
:1020900001151105C1F160915404709155048091AE
:1020A0005604909157040E94B81F0E944C206093E0
:1020B00050047093510480935204909353046091A0
:1020C0004E0470914F04CB01770FAA0BBB0BBC01E0
:1020D000CD016D5475498F4F9F4F0E94B81F2EE858
:1020E0003BE24AE652E40E94942060934A047093D3
:1020F0004B0480934C0490934D04015011091093AC
:10210000010500930005609154047091550480917D
:102110005604909157040E94B81F0E944C209B01C6
:10212000AC016091500470915104809152049091DF
:1021300053040E94A11E20914A0430914B04409107
:102140004C0450914D040E9494200E94801F4B012A
:102150005C012091F4043091F5044091F604509113
:10216000F704A6E0B0E00E94B121DC01CB01880DAC
:10217000991DAA1DBB1DF3E0B595A7959795879569
:10218000FA95D1F78093F4049093F504A093F604A4
:10219000B093F7044091F0045091F1046091F2047F
:1021A0007091F304481B590B6A0B7B0B443DEEEF17
:1021B0005E07EFEF6E077E076CF08A019B014D32E0
:1021C00051406105710524F00CE211E020E030E09F
:1021D000980102C024ED3EEFA901475F5F4F4331F4
:1021E000510560F0121613061CF42A50310908C07C
:1021F0002115310529F0265F3F4F02C020E030E075
:1022000040911403429F6001439FD00C1124A6010A
:10221000440F452F441F550B4739510514F046E92B
:1022200050E04A361FEF510714F44AE65FEFE091A1
:102230001503E29F6001E39FD00C112476E0D59452
:10224000C7947A95E1F72091E4043091E5042C0DD0
:102250003D1D213365E7360714F020E335E7203DC7
:10226000EAE83E0714F420ED3AE83093E5042093C1
:10227000E4046901CD2CDD0CDD08C594C40ED51E27
:10228000D092E304C092E204209168043091690482
:10229000A901415F5F4F4F31510528F41092690445
:1022A000109268040CC0121613061CF42051310958
:1022B00002C0205F3F4F309369042093680420914F
:1022C000460430914704821B930B68E270E00E9441
:1022D000E5040091F4041091F5042091F604309186
:1022E000F704009346041093470420934804309366
:1022F00049046D32F1E07F0714F06CE271E08B016C
:10230000643D7E4F14F404ED1EEFC8010996439717
:1023100060F0101611061CF40A50110908C00115CE
:10232000110529F0065F1F4F02C000E010E0609128
:10233000680470916904072E000C880B990B0E94A9
:10234000B81F28EA39E840E056E30E9494204B0188
:102350005C01B70180E090E00E94B61F9B01AC01D8
:10236000C501B4010E94942020914204309143049D
:1023700040914404509145040E94A21E26EF38E289
:102380004CE75FE30E9494204B015C01B801110F00
:10239000880B990B0E94B81F2FE832EC45E75CE3ED
:1023A0000E9494209B01AC01C501B4010E94A21EB1
:1023B00060934204709343048093440490934504D3
:1023C0000E94801F9B012C5F3F4F2930310528F46C
:1023D0001092F9041092F8040EC01616170624F491
:1023E000AB014550510903C0AB014B5F5F4F5093A8
:1023F000F9044093F804409116032091F8043091B9
:10240000F904429FC001439F900D112434E095953B
:1024100087953A95E1F78739910514F086E990E0C0
:102420008A363FEF930714F48AE69FEFC81AD90A59
:10243000D092E304C092E20402C01092E1040E9430
:10244000CB00609328057093290580932A0590930B
:102450002B052091FE043091FF04AB01421B530B6E
:102460009A015093E0044093DF04203F3A4038F350
:102470007093FF046093FE0426E04EE551E06BE3A9
:1024800088E60E94190280915E0190915F01982771
:102490008927982791958195910913E095958795BE
:1024A0001A95E1F79093FA028093F9028091600106
:1024B0009091610198278927982791958195910995
:1024C00003E0959587950A95E1F79093FC02809338
:1024D000FB028091620190916301982789279827D8
:1024E00023E0959587952A95E1F79093FE028093D6
:1024F000FD028091FC049091FD04009709F44BC00B
:1025000001979093FD048093FC0409EF12E0EAE543
:10251000F4E02FED35E08F3F61E0960721F4108263
:10252000118212821382D801CD90DD908D010D2C85
:10253000000CEE08FF0840815181628173814C0DCF
:102540005D1D6E1D7F1D4193519361937193B9E0A1
:102550007595679557954795BA95D1F7D9014D93DC
:102560005D939D01B2E00F3F1B07A9F6892B99F4FB
:102570008091E3059091E40592509093E405809357
:10258000E30510923103109230031092330310923E
:1025900032030E9418098091F9029091FA02209169
:1025A000DF053091E005821B930B9093FA02809334
:1025B000F9028091FB029091FC022091E10530919B
:1025C000E205821B930B9093FC028093FB028091A7
:1025D000FD029091FE022091E3053091E405821BFB
:1025E000930B9093FE028093FD020E94CB006B013F
:1025F0007C018091820490918304B601681B790B61
:1026000080E090E00E94B61F29E134E442E959E3FA
:102610000E9494202B013C01D0928304C09282043A
:10262000E1EEF2E0F88FEF8BA6E7EA2EA4E0FA2EB7
:102630009E012F5F3F4F490147EE52E058A34F8F55
:102640001F01A12CB12C6501D7010D911D912D9178
:102650003C91D901C801F4E0B695A7959795879567
:10266000FA95D1F7F101819391931F01468957891A
:10267000481B590B052E000C660B770B400F511FA2
:10268000621F731FF70141935193619371937F010F
:10269000BC010E94E504A60EB71EC81ED91ED101BA
:1026A00050966D917C915197072E000C880B990BD9
:1026B0000E94B81FA30192010E9494200E94801FD3
:1026C000F401619371934F01F7EE2F16F2E03F068C
:1026D00009F0BACFBE016F5F7F4F8CE191E00E949D
:1026E000F804BE016F5F7F4F8AE694E00E94F80411
:1026F000BB27D7FCBA95AD2D9C2D8B2D5C0117E621
:10270000A11A13E0B10A7CE1C72E71E0D72E0AE6C8
:1027100014E0E1EEEE2EE2E0FE2E412C512C3201CF
:1027200022E3A21621E0B206F8F4D7018D919C9124
:10273000F60122813381821B930B092E000CAA0B18
:10274000BB0B56E0880F991FAA1FBB1F5A95D1F7E4
:102750004081518162817381840F951FA61FB71F2D
:1027600080839183A283B383D60112966D917C916D
:102770001397F701819191917F010E94E504460E24
:10278000571E681E791ED7011A968D919C911B9732
:10279000F80122813381821B930B092E000CAA0BB6
:1027A000BB0BBA2FA92F982F8827408151816281B6
:1027B0007381840F951FA61FB71F81939193A193D7
:1027C000B1938F01F4E0CF0ED11C28E2C21621E0B4
:1027D000D20609F0A5CF20912601309127018091E2
:1027E0000903213D314014F0806801C08F77809348
:1027F000090380911E0190911F01BC010E94E50414
:102800006B017C018091260190912701BC010E94FF
:10281000E504A7019601260F371F481F591F2B8F6C
:102820003C8F4D8F5E8F8091220190912301BC01DE
:102830000E94E5042B8D3C8D4D8D5E8D620F731FC4
:10284000841F951F0E94B81F8B019C013595279509
:1028500017950795A9EFCA2EDD24DA94AFE1EA2E89
:10286000AFE5FA2EC01AD10AE20AF30A27E336E3EB
:1028700044E35FE30E949420A70196010E94942004
:10288000A70196010E9494209B01AC0166EF78E4B9
:1028900087ED9FE30E94A11EA70196010E9494204C
:1028A00069A37AA38BA39CA300911E0110911F0121
:1028B0002091260130912701032E000C440B550B6B
:1028C000B801012E000C880B990B0E94790590939A
:1028D0000203809301036B8D7C8D8D8D9E8D0E94F4
:1028E000B81F6B017C01DC01CB01B595A7959795CD
:1028F000879539EF832E99249A943FE1A32E3FE5E3
:10290000B32E881A990AAA0ABB0A27E336E344E3DE
:102910005FE3C701B6010E949420A50194010E94C3
:102920009420A50194010E9494209B01AC0166EFC4
:1029300078E487ED9FE30E94A11EA50194010E9407
:102940009420A70196010E9494200E94801F9B0161
:10295000AC018091220190912301BC01990F880B59
:10296000990B0E9479059093040380930303A0912F
:102970007004B09171042B8D3C8D4D8D5E8D0E9445
:10298000BC216B017C01B80180916C0490916D04B5
:102990000E94E5044B015C016091260170912701C2
:1029A00080917404909175040E94E504A50194013E
:1029B000260F371F481F591FA0912201B0912301F4
:1029C0000E94BC21A7019601261B370B480B590B0F
:1029D000CA01B9010E94B81F29A13AA14BA15CA16B
:1029E0000E9494200E94801F4B015C0160911E0197
:1029F00070911F0180917404909175040E94E50408
:102A00006B017C01609126017091270180916C041B
:102A100090916D040E94E504A7019601261B370BD7
:102A2000480B590BCA01B901A50194010E9479050F
:102A30002091410330914203820F931F6AE070E0BE
:102A40000E9446217093060360930503C301B201FF
:102A50000E94B81F29A13AA14BA15CA10E94942019
:102A60000E94801F2091090321FD14C0409166043B
:102A7000509167049A01E3E035952795EA95E1F7CF
:102A8000DA01A21BB30B9D01260F371F3093670499
:102A900020936604209166043091670443E03595E5
:102AA00027954A95E1F7AB01421B530B50936904FC
:102AB000409368040E9450028091F3029091F402C6
:102AC0009093C1048093C0048091F5029091F60226
:102AD0009093C3048093C2048091F7029091F8020E
:102AE0009093C5048093C4040E94CB007C8F6B8FAD
:102AF00080911C0590911D058D3DB5E09B07ACF0C4
:102B000030912D03803DE7E09E0764F48C5D954095
:102B1000389FA001399F500D1124852F869520E8FC
:102B2000281B04C020E8231B01C020E820902B03B1
:102B3000312C86E1482E85E0582E48EE54E05EA701
:102B40004DA78BE093E09AA389A3AAEDB4E0BCABB8
:102B5000ABABECECF4E0FAABE9AB3F014D019EA36B
:102B60008DA3E8EEF4E030E090E8B92ED2014D916B
:102B70005D912D014D3DB5E05B072CF0403D17E028
:102B800051074CF40BC08CED95E0841B950B843FF2
:102B900061E0960734F084EF91E003C0CA018C5DD8
:102BA0009540323009F466C0BC01660F672F661F7E
:102BB000770B71958B01000F111F09531D4FD80121
:102BC0000D911C917B01EE0CFF1CD701A753BD4F4B
:102BD000ED90FC90E01AF10A7695762F66277795AE
:102BE00067956C01C61AD70AEC9CB001ED9C700D7C
:102BF000FC9C700D1124660F672F661F770B719573
:102C0000600F711F71836083829DB001839D700D81
:102C1000929D700D1124872F8695BB2DB81BB29FF6
:102C2000C0011124880F892F881F990B9195ADA1A0
:102C3000BEA11C91189FB001199F700D1124660F41
:102C4000672F661F770B7195D4016C93ADA1BEA160
:102C500012961C91189FB001199F700D1124660FD8
:102C6000672F661F770B7195D3016C934C3D5540D0
:102C700034F00CC0918380834C3D5540C4F4808176
:102C80009181919581959109918380833F5F3296DF
:102C90004DA15EA14D5F5F4F5EA34DA35FEF851A0F
:102CA000950A6FEF661A760A333009F05FCF2091EC
:102CB0001C0530911D052C3484E038073CF0213D83
:102CC00097E039072CF020ED37E002C02CE434E027
:102CD0002C543440AFEFB9E00E949B2124E833E04C
:102CE00040E050E00E945A21832F9927FC01EE0F0B
:102CF000FF1FEF54FD4F60817181FC01EE0FFF1F3C
:102D0000ED54FD4F0190F081E02DE61BF70B982F5D
:102D100088278901081B190BE09FC001E19F900DD6
:102D2000F09F900D1124892F9927680F791F7093B8
:102D3000EF046093EE048091B9048F5F8093B9042F
:102D400080918A04E82FF0E0DF01AE5FBA4F9C91DA
:102D5000EC57FB4F2081291719F021E02093EE0555
:102D600090838F5F863018F480938A0402C010929B
:102D70008A0480912801813039F48091F505811110
:102D800003C01092EE0502C0109228018091070541
:102D9000882321F081E08093F10502C01092F105B3
:102DA0008091640190916501A0916601B0916701E5
:102DB0000097A105B105A9F04091B1045091B2046A
:102DC0006091B3047091B404481759076A077B07F0
:102DD00040F08091090381FF04C081E08093F305F6
:102DE00002C01092F30580916B0290916C020196E3
:102DF0008636910520F081E08093F70502C010929D
:102E0000F7058091EF05813019F400ED17E043C01C
:102E1000823021F08091F605813049F402E310E020
:102E200022E330E048EC50E068EC70E027C080918D
:102E3000EE05813049F400E010E022E330E040E0AC
:102E400050E060E070E01AC0823039F400E010E039
:102E500022E330E040E050E00FC0833019F400E09E
:102E600010E006C08091F105813059F402E310E0D2
:102E700022E330E042E350E062E370E082E390E07E
:102E800035C08091F305813051F38091F505813093
:102E900049F408EC10E022E330E040E050E060E06C
:102EA00070E013C0823039F408EC10E022E330E027
:102EB00040E050E008C0833059F408EC10E022E311
:102EC00030E048EC50E068EC70E088EC90E00EC038
:102ED0008091F905813069F400E010E020E030E0F5
:102EE00040E050E060E070E080E090E00E944D083B
:102EF00002C00E9445081092F6058091FC04909152
:102F0000FD04892B31F48091070390910803892BEC
:102F100011F01D9A08C08091090382FD2D988091BF
:102F2000090381FD2D9A4091280550912905609152
:102F30002A0570912B058091B5049091B604A0915B
:102F4000B704B091B80484179507A607B70700F532
:102F50008091090387FD19C08B7F809309031D9A17
:102F60008091280590912905A0912A05B0912B0503
:102F700080569947AE4FBF4F8093B5049093B604E7
:102F8000A093B704B093B80403C08460809309038E
:102F90000E94CB001092B00280916A0190918B0444
:102FA000891B92E3792E28ECE22E20E0F22E3AE300
:102FB000C32E37E0D32E48EEA42E43E0B42E57E0C4
:102FC000852E912C60EF662E73E0572E2FEF280F81
:102FD000882309F4F1C18091690190916801891BEE
:102FE0008F778F3408F0E8C180918B04E82FF0E0F0
:102FF000E559FE4F908130916A01831719F08F5F78
:1030000080938B048091B004811105C081E09432DB
:1030100009F0CBC1CEC1813029F49D3409F0C5C17E
:1030200082E0C7C1823029F49C3309F0BEC183E03D
:10303000C0C1833071F4913410F0822FC7CF9093C8
:10304000AF049093AF021092AE041092AE0284E0EF
:10305000B0C1843049F49093AD028091AF029827BB
:103060009093AF0285E0A5C1853009F0A2C1E0913F
:10307000AE044091AF043091AF02E41760F43927F9
:103080003093AF0231E03E0F3093AE04F0E0E359ED
:10309000FD4F90838EC139138AC18091AD0285376F
:1030A00009F43DC108F05BC08D3609F42CC128F548
:1030B000873609F403C1A8F4853609F4CAC008F0BC
:1030C000F9C0843609F06AC169825A821B8220E005
:1030D00030E040E050E72C833D834E835F8367E020
:1030E000E6C0893609F40BC108F4F6C08C3609F045
:1030F00055C166E081E093E04EC1813709F412C109
:1031000048F48F3609F403C108F005C167E084E98B
:1031100094E041C1833709F418C108F007C11A824D
:10312000198280917D0390917E039C838B83DE8244
:10313000CD82B886AF821A8619861C861B861D86AC
:103140001E861F86188A80914103909142039A8BB4
:10315000898B1B8A1C8A1D8A1E8A66E1A8C08E3C48
:1031600009F409C1F8F48A3C09F451C080F48837A5
:1031700009F4A8C0883C09F442C0873709F00EC1A1
:1031800066E080E00E94690402EC10E0D4C08C3C50
:1031900009F443C008F0E4C00E948D046CE084E3AD
:1031A00093E040C0843D09F491C068F4803D09F487
:1031B000D0C0D8F1833D09F0F1C00E948D0462E0D7
:1031C0008FEF92E02FC0803F09F48AC070F48F3EE9
:1031D00009F0E4C00E948D0462E082E393E00E9463
:1031E0001A0462E080E393E01DC08A3F09F4CDC079
:1031F0008E3F09F0D3C068E08CE894E0CCC060E179
:103200008EE994E00E941A0470929D04D0C00E943E
:103210008D046EE18BE093E005C00E948D0467E0B1
:1032200089E293E00E941A04C2C00E948D0466E104
:10323000CE0101960E941A048B819C8190937E039B
:1032400080937D0389899A899093420380934103F7
:10325000AEC08091DF049091E0049A8389838091CD
:103260006B0290916C029C838B839E828D82209155
:10327000090323FD04C080E090E0DC0104C082E08B
:1032800090E0A0E0B0E024FD846026FD886025FD8C
:103290008061309107053111806221FD81608F834B
:1032A0009887A987BA878091DE058B876BE0CE016E
:1032B000019671C062E181EE92E06DC060E181E350
:1032C00091E069C068E383E493E065C00E948D04E7
:1032D00068E383E493E0A6CF60E181ED92E05BC018
:1032E00064E080E00E94690462E082E393E00E946F
:1032F000490462E080E393E00E94490453C060E126
:1033000086E195E048C066E084EF94E044C067E061
:1033100089E293E040C06EE18BE093E03CC08BEE2D
:1033200090E006C06CE084E393E035C088EC90E068
:103330000E94A4043CC0F80184910E9431040F5FF4
:103340001F4FE016F106B9F72DC068E089E291E061
:1033500022C08091090381FD1BC00E94E10718C0B3
:103360008091090381FD14C020E032E03093FD0418
:103370002093FC040DC08091090381FD09C0809158
:103380000A03816080930A0303C080E00E94BC07A7
:103390000E948D040CC00E94930409C060E081E08B
:1033A0000E9469040E945B0402C080E002C080E0C9
:1033B00020E08093B00441CE10910903312F327088
:1033C0003AAF11FF18C02091DF043091E0048091E2
:1033D000B1049091B204A091B304B091B404820FEF
:1033E000931FA11DB11D8093B1049093B204A093CB
:1033F000B304B093B4040E94CB004B8D5C8D641B6E
:10340000750B6A387240BCF30E945002E0ECF4E0A5
:10341000BAEBEB2EB4E0FB2E03E0C02ED12CAF8D27
:10342000B8A11C962D913C911D9780819181280F08
:10343000391F21933193D7018D919C91820F931F56
:10344000B6010E944621AF8DB8A16D937D93B8A3BC
:10345000AF8F35952795D7012D933D937D01B4E02E
:10346000E63CFB07E1F62091EC043091ED04A90164
:103470004B5B5F4F80910503909106034B385105DC
:1034800068F515FF2BC04091FF0250910003841B8B
:10349000950B8D34EFEF9E0714F488599E4F843BB3
:1034A000910514F08856914017FD04C040910A031D
:1034B0004670C1F060912303689FA001699F500D81
:1034C0001124CA0175E0959587957A95E1F7281B37
:1034D000390B3093ED042093EC0404C09093000367
:1034E0008093FF02F12FF074F9AF16FF7AC020919C
:1034F000E6043091E7048091EE049091EF04821B82
:10350000930BAC0197FF04C044275527481B590B68
:10351000433351050CF445C040910A0343FD41C0BB
:103520004091DD045091DE04840F951F9093DE04DA
:103530008093DD04AC0197FF04C044275527481B46
:10354000590B413052404CF1AC0197FF02C0415041
:103550005E4F452F550F550B4595052E000C660BFC
:10356000770BC090F004D090F104E090F204F0905A
:10357000F3044C0D5D1D6E1D7F1D4093F0045093B0
:10358000F1046093F2047093F30460E072E00E942F
:1035900046219093DE048093DD0481E08093DC0477
:1035A00016C08091DC04882391F08091F4049091FE
:1035B000F504A091F604B091F7048093F004909381
:1035C000F104A093F204B093F3041092DC04809110
:1035D000E2049091E304280F391F3093EF04209305
:1035E000EE0414FF22C04090E8045090E90457FE16
:1035F00003C05194419451088091EA049091EB04E6
:1036000097FF03C09195819591099201481659063B
:103610000CF49C01213082E0380714F020E032E005
:103620002901330F6608770803C0412C512C320161
:10363000A6EDB4E0B8A7AFA382ED882E84E0982E63
:10364000EEECF4E0FEA3EDA326EC34E038AB2FA7BC
:1036500090E1A92E95E0B92E48E055E058A34F8F90
:103660008BE093E09C8F8B8F212C312C18711BAF3A
:10367000ADA5BEA5ED90FD90BEA7ADA7EE0CFF1CBD
:10368000EF89F88D868197819C0197FF04C02227DE
:103690003327281B390B21383240CCF49701281BE3
:1036A000390BC901D5012D913C91820F931F8138AF
:1036B000BEE39B0714F080E89EE38038E1EC9E07B0
:1036C00014F480E891ECD5018D939C9303C0F5012F
:1036D00011821082D5018D919C91880F892F881FAE
:1036E000990BEB8DFC8D2181289F6001299FD00CC7
:1036F0001124B6E0D594C794BA95E1F7608170E0E3
:10370000C7010E94E5049B01AC0116E05595479561
:10371000379527951A95D1F72DAB3EAB4FAB58AFE8
:103720000DA91EA93BAD332309F492C0F101E25B60
:10373000FE4F808191818E0D9F1D853F41E0940752
:1037400014F084EF91E08C305EEF950714F48CE078
:103750009EEFF101EF5FFC4F208131817C01E21A85
:10376000F30AA9A1BAA195968D919C9196978E0D79
:103770009F1DEF8DF8A100811181080F191F0131E4
:10378000F7E21F0714F000E117E2003F28ED1207EF
:1037900014F400EF18EDAF8DB8A10D931C93609158
:1037A000200370E00E94E504AB01BC01F7E07595D1
:1037B000679557954795FA95D1F780912203B5E023
:1037C0008B9FC0011124EE24FF24E81AF90A4E153C
:1037D0005F052CF07A01841795070CF47C01609149
:1037E000210370E0C8010E94E5049B01AC016CE07C
:1037F00055954795379527956A95D1F729A73AA703
:103800004BA75CA7D601A21BB30BA30192010E9498
:10381000BC21DC01CB0179E0B595A79597958795FB
:103820007A95D1F7C9A4DAA4C80ED91EADA9BEA94C
:10383000AE19BF090E94BC21DC01CB01E9E0B595BE
:10384000A79597958795EA95D1F78701080F191FD6
:10385000ABA9BCA96D91BCABABAB70E0EF89F88DA7
:10386000868197810E94E504DC01CB0126E0B595B5
:10387000A795979587952A95D1F7081B190BAF89BE
:10388000B88D16968D919C911797EFA1F8A5208180
:103890003181AC01421B530B9A0181939193F8A79C
:1038A000EFA3D4014D915C911197EDA1FEA1808110
:1038B0009181840F951F41935193FEA3EDA32D9306
:1038C0003D934D01E9A9FAA96191FAABE9AB70E02A
:1038D000820F931F0E94E5040C0D1D1DDC01CB011E
:1038E00035E0B595A795979587953A95D1F7081B3B
:1038F000190BAFA5B8A90D931D93B8ABAFA7B2E054
:103900002B0E311CEF89F88D3296F88FEF8BF2E099
:10391000AF0EB11C2B8D3C8D2D5F3F4F3C8F2B8FFD
:1039200049A15AA14E5F5F4F5AA349A38F8D98A119
:10393000029698A38F8F94E02916310409F098CE4F
:1039400060912C0370E0615F7F4F660F771F80915D
:10395000EC049091ED040E94E5046B017C01A5E06C
:10396000F594E794D794C794AA95D1F78091EB0288
:103970009091EC028601081B190B6091120370E014
:10398000C8010E94E5049601D7FE04C02227332710
:103990002C193D092333310564F5C0900C05D090F6
:1039A0000D05E0900E05F0900F05DC01CB018C0DAC
:1039B0009D1DAE1DBF1D8F3FEFEF9E07AE07EFE0D1
:1039C000BE0724F08EEF9FEFAFEFBFE0823091058E
:1039D000A105F0EFBF0724F482E090E0A0E0B0EF93
:1039E00080930C0590930D05A0930E05B0930F05E1
:1039F00008C010920C0510920D0510920E05109241
:103A00000F056091110370E0C8010E94E504AB014D
:103A1000BC01E6E07595679557954795EA95D1F70E
:103A2000909113032CE231E0D901A91BB10922279F
:103A300033272A1B3B0B421753072CF09A01A4177C
:103A4000B5070CF49D0180910C0590910D05A09196
:103A50000E05B0910F054DE0B595A7959795879503
:103A60004A95D1F78B3F910514F08AEF90E08630AC
:103A7000BFEF9B0714F486E09FEFBC01620F731F3A
:103A80007093CB046093CA044091EE045091EF040C
:103A90002091C6043091C704CA01821B930BA091E8
:103AA000C804B091C904FC01EA0FFB1FE61BF70B29
:103AB000F093D202E093D1028A1B9B0B860F971FD3
:103AC0009093D4028093D302240F351FAD01420F8F
:103AD000531F460F571F5093D6024093D5022A1BFF
:103AE0003B0B261B370B3093D8022093D702841749
:103AF00095070CF4CA01821793070CF4C9018E17BD
:103B00009F070CF4CF0140917D0350917E03C0903C
:103B10001C05D0901D05E1EDF2E024E0F22EDC0161
:103B2000AA53B74008EE13E08B3327E0920734F036
:103B3000208131812A1B3B0B3183208320813181FD
:103B4000241735073CF02B3367E0360724F02AE3CF
:103B500037E001C09A01318320832CE4C21624E0AF
:103B6000D2062CF439AD311102C0518340836AADC5
:103B7000611102C011830083FA943296F110D4CF00
:103B80000E94BA0480E090E0892B11F40C940B0B96
:103B90000E9400000C940B0B83FD19C010920905C4
:103BA0001092080510920B0510920A0588600DC04E
:103BB00083FF08C010921105109210051092130592
:103BC0001092120580910903877F809309038091E9
:103BD0000405882389F080910903877F8093090376
:103BE00084FD1BC0109209051092080510920B0568
:103BF00010920A0580610FC08091090384FF08C0FC
:103C000010921105109210051092130510921205D2
:103C1000809109038F7E80930903809102058111B1
:103C200005C0809109038160809309038091050597
:103C3000882341F18091090386FD29C08064809327
:103C400009038091F4049091F504A091F604B091D9
:103C5000F7048093F0049093F104A093F204B093DE
:103C6000F3048091EE049091EF049093E704809325
:103C7000E6041092E5041092E4041092E30410921A
:103C8000E20405C0809109038F7B80930903809132
:103C90000605882399F08091090385FF02C00C94E2
:103CA0001F1280628093090380910503909106039F
:103CB000909300038093FF020C941F1280910903DC
:103CC0008F7D809309030C941F121D3B11F00C94FF
:103CD0007C0C809130039091310302970C94730C0B
:103CE000FC0105900020E9F7809590958E0F9F1FAD
:103CF0000895DC01CB01FC01F999FECF06C0F2BDAD
:103D0000E1BDF89A319600B40D9241505040B8F799
:103D10000895DC01CB0103C02D910E94941E4150F7
:103D20005040D0F70895262FF999FECF1FBA92BDC3
:103D300081BD20BD0FB6F894FA9AF99A0FBE01968C
:103D400008955058BB27AA270E94B91E0C940A2038
:103D50000E94FC1F38F00E94032020F039F49F3F9E
:103D600019F426F40C94F91F0EF4E095E7FB0C947B
:103D7000F31FE92F0E941B2058F3BA17620773073D
:103D80008407950720F079F4A6F50C943D200EF4F5
:103D9000E0950B2EBA2FA02D0B01B90190010C015B
:103DA000CA01A0011124FF27591B99F0593F50F473
:103DB000503E68F11A16F040A22F232F342F4427CB
:103DC000585FF3CF469537952795A795F0405395C3
:103DD000C9F77EF41F16BA0B620B730B840BBAF093
:103DE0009150A1F0FF0FBB1F661F771F881FC2F7FE
:103DF0000EC0BA0F621F731F841F48F48795779512
:103E00006795B795F7959E3F08F0B0CF9395880FCB
:103E100008F09927EE0F9795879508950E94221F25
:103E20000C940A200E94032058F00E94FC1F40F0CE
:103E300029F45F3F29F00C94F31F51110C943E209C
:103E40000C94F91F0E941B2068F39923B1F35523AA
:103E500091F3951B550BBB27AA276217730784079D
:103E600038F09F5F5F4F220F331F441FAA1FA9F333
:103E700035D00E2E3AF0E0E832D091505040E69521
:103E8000001CCAF72BD0FE2F29D0660F771F881F82
:103E9000BB1F261737074807AB07B0E809F0BB0B75
:103EA000802DBF01FF2793585F4F3AF09E3F510589
:103EB00078F00C94F31F0C943E205F3FE4F3983E9F
:103EC000D4F3869577956795B795F7959F5FC9F772
:103ED000880F911D9695879597F90895E1E0660FF3
:103EE000771F881FBB1F621773078407BA0720F06C
:103EF000621B730B840BBA0BEE1F88F7E0950895D5
:103F00000E94871F6894B1110C943E2008950E946E
:103F1000232088F09F5798F0B92F9927B751B0F018
:103F2000E1F0660F771F881F991F1AF0BA95C9F73D
:103F300014C0B13091F00E943D20B1E008950C947E
:103F40003D20672F782F8827B85F39F0B93FCCF331
:103F5000869577956795B395D9F73EF490958095BA
:103F6000709561957F4F8F4F9F4F0895E89409C0DA
:103F700097FB3EF490958095709561957F4F8F4F9C
:103F80009F4F9923A9F0F92F96E9BB279395F695B2
:103F9000879577956795B795F111F8CFFAF4BB0F30
:103FA00011F460FF1BC06F5F7F4F8F4F9F4F16C094
:103FB000882311F096E911C0772321F09EE8872F1E
:103FC000762F05C0662371F096E8862F70E060E0DA
:103FD0002AF09A95660F771F881FDAF7880F969553
:103FE000879597F9089597F99F6780E870E060E0FA
:103FF00008959FEF80EC089500240A941616170682
:1040000018060906089500240A94121613061406C9
:1040100005060895092E0394000C11F4882352F02C
:10402000BB0F40F4BF2B11F460FF04C06F5F7F4FE4
:104030008F4F9F4F089557FD9058440F551F59F0CB
:104040005F3F71F04795880F97FB991F61F09F3F85
:1040500079F087950895121613061406551FF2CFAE
:104060004695F1DF08C0161617061806991FF1CFFE
:1040700086957105610508940895E894BB27662725
:104080007727CB0197F9089516F00C9401210C9431
:10409000F91F68940C94F31F0E942320A8F399231E
:1040A000C1F3AEF3DF93CF931F930F93FF92C92F0A
:1040B000DD2788232AF02197660F771F881FDAF7FC
:1040C00020E030E040E85FEB9FE3883920F0803E5D
:1040D00038F021968F770E94A21EE8E6F0E004C037
:1040E0000E94A21EE5E9F0E00E940F218B01BE01B3
:1040F000EC01FB2E6F5771097595771F880B990B93
:104100000E94B81F28E132E741E35FE30E94A72045
:10411000AF2D9801AE01FF900F911F91CF91DF91CC
:104120000E94B91E0C940A200E94A7200C940A2019
:104130000E94FC1F38F00E94032020F0952311F00C
:104140000C94F31F0C94F91F11240C943E200E9430
:104150001B2070F3959FC1F3950F50E0551F629F90
:10416000F001729FBB27F00DB11D639FAA27F00DD0
:10417000B11DAA1F649F6627B00DA11D661F829FF7
:104180002227B00DA11D621F739FB00DA11D621FDC
:10419000839FA00D611D221F749F3327A00D611DF9
:1041A000231F849F600D211D822F762F6A2F1124DB
:1041B0009F5750409AF0F1F088234AF0EE0FFF1F0E
:1041C000BB1F661F771F881F91505040A9F79E3F65
:1041D000510580F00C94F31F0C943E205F3FE4F3F4
:1041E000983ED4F3869577956795B795F795E795BB
:1041F0009F5FC1F7FE2B880F911D9695879597F9C4
:1042000008959F3F31F0915020F4879577956795F9
:10421000B795880F911D9695879597F90895DF9327
:10422000CF931F930F93FF92EF92DF927B018C014C
:10423000689406C0DA2EEF010E94A720FE01E894E0
:10424000A5912591359145915591A6F3EF010E94D5
:10425000B91EFE019701A801DA9469F7DF90EF908B
:10426000FF900F911F91CF91DF910895DB018F9304
:104270009F930E94B121BF91AF91A29F800D911D8C
:10428000A39F900DB29F900D1124089597FB072EC8
:1042900016F4009407D077FD09D00E94C42107FCD2
:1042A00005D03EF4909581959F4F08957095619546
:1042B0007F4F0895A1E21A2EAA1BBB1BFD010DC062
:1042C000AA1FBB1FEE1FFF1FA217B307E407F507C6
:1042D00020F0A21BB30BE40BF50B661F771F881FA2
:1042E000991F1A9469F760957095809590959B0138
:1042F000AC01BD01CF010895052E97FB1EF400947B
:104300000E94932157FD07D00E945A2107FC03D039
:104310004EF40C94932150954095309521953F4F44
:104320004F4F5F4F089590958095709561957F4FA1
:104330008F4F9F4F0895A29FB001B39FC001A39FCD
:10434000700D811D1124911DB29F700D811D1124CE
:10435000911D08950E949B21B7FF0895821B930B26
:1043600008950E949B21A59F900DB49F900DA49F3E
:10437000800D911D11240895B7FF0C94B1210E9466
:10438000B121821B930B0895AA1BBB1B51E107C0EF
:10439000AA1FBB1FA617B70710F0A61BB70B881FD5
:1043A000991F5A95A9F780959095BC01CD01089564
:0443B000F894FFCFAF
:1043B400DE05DE05DE05DE05DE05DE05DE05DE05E1
:1043C4000000803F0000803F0000803F00000000AC
:1043D400000000000000000201090A0B030605109A
:1043E4000CDC05DC05DC05DC05DC05DC05DC05E8AE
:1043F40003041020408004050602070001030000A6
:024404000000B6
:00000001FF
