:100000000C947C000C9499000C9499000C94990029
:100010000C9499000C9467020C9499000C9499002C
:100020000C9499000C9499000C9499000C949900EC
:100030000C9499000C9499000C9499000C949900DC
:100040000C9406010C9499000C9450010C946E01D0
:100050000C9499000C9499000C9499000C949900BC
:100060000C9499000C949900000102050D41524D29
:100070003B414E474C453B484F52495A4F4E3B4DF2
:1000800041473B4245455045523B00524F4C4C3B4B
:1000900050495443483B5941573B414C543B506FA6
:1000A000733B506F73523B4E6176523B4C45564505
:1000B0004C3B4D41473B56454C3B00000000002562
:1000C0000028002B0000000000240027002A000464
:1000D00004040404040404020202020202030303EF
:1000E00003030301020408102040800102040810E9
:1000F000200102040810200011241FBECFEFD8E019
:10010000DEBFCDBF11E0A0E0B1E0E8E2F3E302C062
:1001100005900D92A235B107D9F725E0A2E5B1E02F
:1001200001C01D92AD37B207E1F70E9474080C942C
:1001300092190C9400003FB7F89480910F059091AC
:100140001005A0911105B091120526B5A89B05C018
:100150002F3F19F00196A11DB11D3FBFBA2FA92F46
:10016000982F8827820F911DA11DB11DBC01CD01C3
:1001700042E0660F771F881F991F4A95D1F70895AF
:100180008F929F92AF92BF92CF92DF92EF92FF92A7
:100190006B017C010E949B004B015C01C114D104E6
:1001A000E104F104F1F00E949B00DC01CB0188190D
:1001B0009909AA09BB09883E9340A105B10570F3CE
:1001C00021E0C21AD108E108F10888EE880E83E028
:1001D000981EA11CB11CC114D104E104F10419F74B
:1001E000DDCFFF90EF90DF90CF90BF90AF909F90CA
:1001F0008F9008952FB7F89460910B0570910C05BE
:1002000080910D0590910E052FBF08951F920F92BA
:100210000FB60F9211242F933F938F939F93AF9319
:10022000BF9380910B0590910C05A0910D05B091A5
:100230000E0530910A0523E0230F2D3720F4019697
:10024000A11DB11D05C026E8230F0296A11DB11DF9
:1002500020930A0580930B0590930C05A0930D0540
:10026000B0930E0580910F0590911005A091110596
:10027000B09112050196A11DB11D80930F059093B9
:100280001005A0931105B0931205BF91AF919F91F6
:100290008F913F912F910F900FBE0F901F90189547
:1002A0001F920F920FB60F9211248F939F93EF938B
:1002B000FF939091C600E091580181E08E0FF0E02D
:1002C000E75AFE4F908380935801FF91EF919F91E1
:1002D0008F910F900FBE0F901F9018951F920F9245
:1002E0000FB60F9211248F939F93EF93FF939091EA
:1002F000560180915701981769F081E0890F87FDB9
:1003000080E0E82FF0E0E657FB4F90819093C60025
:100310008093560190915701891305C08091C100C7
:100320008F7D8093C100FF91EF919F918F910F90EE
:100330000FBE0F901F901895CF92DF92EF92FF9211
:100340001F93CF93DF9383E40E940F0880911505DC
:1003500090911605982789279827959587959595C3
:1003600087959093F2028093F1028091130590910A
:100370001405982789279827919581959109959536
:100380008795959587959093F4028093F3028091D9
:100390001705909118059827892798279195819599
:1003A000910995958795959587959093F6028093F9
:1003B000F50280910503909106030097E9F11091F1
:1003C0002005A1EFB2E0EEE7F4E0C8E7D4E02AE8C8
:1003D00034E0811542E0940721F4108211821282E8
:1003E00013824D915D91052E000C660B770BC0803A
:1003F000D180E280F3804C0D5D1D6E1D7F1D419309
:10040000519361937193032E39E0759567955795D4
:1004100047953A95D1F7302D4993599381309105FD
:1004200009F413E02E173F07A1F61093200501975A
:100430009093060380930503C8E7D4E0E1EFF2E070
:10044000A2E7B4E08991999120813181281B390B71
:100450004D915C911197CA0180529340281739073A
:1004600034F0805C994F281739070CF4C901819347
:1004700091938D939D9382E0E73FF80719F7DF9101
:10048000CF911F91FF90EF90DF90CF9008958093D0
:10049000BC008FEF9091BC0097FD0DC08150D1F74B
:1004A0001092BC008091690290916A02019690932B
:1004B0006A02809369020895CF93C82F84EA0E944C
:1004C0004702C093BB0084E8CF910C9447021F926F
:1004D0000F920FB60F9211242F933F934F935F9378
:1004E0006F937F938F939F93AF93BF93CF93DF933C
:1004F000EF93FF93C9B1D0917104DC270E949B0058
:100500007894C0937104D2FF18C0C2FD12C020912C
:10051000610430916204AB01421B530B9A014558B0
:1005200053404331554048F4309305012093040172
:1005300004C07093620460936104D4FF18C0C4FDCA
:1005400012C02091630430916404AB01421B530B31
:100550009A01455853404331554048F430930901BE
:100560002093080104C07093640460936304D5FF72
:1005700018C0C5FD12C02091650430916604AB011E
:10058000421B530B9A01455853404331554048F4A0
:1005900030930B0120930A0104C0709366046093AA
:1005A0006504D6FF18C0C6FD12C0209167043091C3
:1005B0006804AB01421B530B9A0145585340433129
:1005C000554048F430930D0120930C0104C0709302
:1005D000680460936704D7FF17C0C7FD11C020915E
:1005E000690430916A04621B730BCB0185589340F8
:1005F0008331954048F470930F0160930E0104C05D
:1006000070936A0460936904FF91EF91DF91CF9139
:10061000BF91AF919F918F917F916F915F914F911A
:100620003F912F910F900FBE0F901F901895615022
:10063000A0F02091AE0230E0F901E455FD4F408179
:1006400051E0540F508325593D4FF901E40FF11D3E
:100650002081FC012193CF01EACF08952091AE02C1
:1006600030E0D901A95ABE4F9C919F5F97FD90E061
:10067000F901E657FB4FE90FF11D80839C93F901C7
:10068000E355FD4F90818927808308950F931F9331
:10069000CF938C01C62FCC2339F0F80181918F01C3
:1006A0000E942E03C150F7CFCF911F910F91089553
:1006B000E091AE02F0E0E355FD4F80810E942E03F1
:1006C000E1ECF0E08081806280830895CF93DF9336
:1006D000D82FC62F84E20E942E038DE40E942E03A1
:1006E000D11102C08EE301C081E20E942E03E0918D
:1006F000AE02F0E0E355FD4F10828C2F0E942E03D6
:10070000E091AE02F0E0E555FD4F8081DF91CF91A1
:100710000C942E0360E080E00E9466030C94580362
:100720000F931F93CF938C01C62F80E00E94660326
:100730006C2FC8010E944603CF911F910F910C941A
:100740005803CF93DF93EC010E94BF16682F80E01F
:100750000E946603FE018491882329F084910E94FF
:100760002E032196F7CFDF91CF910C945803EFEC35
:10077000F2E08081918123E0959587952A95E1F7B4
:1007800090938900809388008281938133E09595CE
:1007900087953A95E1F790938B0080938A00848146
:1007A000958143E0959587954A95E1F78093B3004D
:1007B0008681978153E0959587955A95E1F78093C7
:1007C000B40008959B01AC01AA27429FB0015302D7
:1007D000C00134039A0B700D811D9A1F52039A0BAE
:1007E000700D811D9A1F112408956F927F928F9230
:1007F0009F92AF92BF92CF92DF92EF92FF920F93B0
:100800001F93CF93DF93EC018B016A807B80CE80B6
:10081000DF80EA84FB84B301F801808191810E942A
:10082000E2034B015C01B601F801828193810E94D1
:10083000E203860E971EA81EB91E88859985AA8593
:10084000BB8588199909AA09BB0988879987AA874E
:10085000BB87B701F801808191810E94E2034B01BF
:100860005C01B601F801848195810E94E203861A39
:10087000970AA80AB90A88819981AA81BB81880E42
:10088000991EAA1EBB1E88829982AA82BB82B701CA
:10089000F801828193810E94E2036B017C01B30124
:1008A000F801848195810E94E203DC01CB018C0D6B
:1008B0009D1DAE1DBF1D0C811D812E813F81800FAE
:1008C000911FA21FB31F8C839D83AE83BF83DF91D3
:1008D000CF911F910F91FF90EF90DF90CF90BF903D
:1008E000AF909F908F907F906F9008954F925F92FE
:1008F0006F927F928F929F92AF92BF92CF92DF9230
:10090000EF92FF92CF93DF93CDB7DEB728970FB664
:10091000F894DEBF0FBECDBF6B017C0149015A01C7
:100920000E9407182B013C01C982DA82EB82FC820B
:10093000F7FE0BC022273327A9012C193D094E09C8
:100940005F0929833A834B835C838D829E82AF82C9
:10095000B886B7FE0BC088279927DC01881999094A
:10096000AA09BB098D839E83AF83B88729813A8109
:100970004B815C818D819E81AF81B88528173907B5
:100980004A075B074CF4C501B4010E9407189B019C
:10099000AC01C301B20106C0C501B4010E94071831
:1009A000A30192010E945D172B013C019B01AC0148
:1009B0000E94931821ED31E944E650E40E94F116BB
:1009C0009B01AC01C301B2010E945D1723EC3DEC19
:1009D0004FEF54E40E9493180E94CF17FB01498007
:1009E0005A806B807C802D813E814F8158854216D4
:1009F0005306640675065CF4B7FE13C0F7FE03C029
:100A0000E850F7400EC0FB01E85FF84F0AC0F7FC62
:100A100003C024E833E002C02CE73CEFF901E61BF9
:100A2000F70BCF0128960FB6F894DEBF0FBECDBFEF
:100A3000DF91CF91FF90EF90DF90CF90BF90AF907C
:100A40009F908F907F906F905F904F90089540E1BE
:100A500050E060E070E089E592E00E94C816E9E5A8
:100A6000F2E090E185E5915019F02191820FFBCFE2
:100A700090916802981741F01092590288E893E12A
:100A800090935B0280935A020895CF92DF92EF9287
:100A9000FF920F931F93CF93DF93182F042FC0E083
:100AA000C62ED12CE12CF12CC01791F0D0E0D1173B
:100AB00039F01D9AC701B6010E94C000DF5FF7CF71
:100AC0006CE370E080E090E00E94C000CF5FECCF6C
:100AD000DF91CF911F910F91FF90EF90DF90CF901A
:100AE0000895209105033091060380910703232B7D
:100AF00089F482FF0FC0982F9274B1F482608093C2
:100B0000070380910303909104039093FE02809366
:100B1000FD02089581FD08C041E06FEF82E00E9470
:100B2000450581E08093210508952F923F924F92D1
:100B30005F926F927F928F929F92AF92BF92CF926D
:100B4000DF92EF92FF920F931F93CF93DF93CDB776
:100B5000DEB72A970FB6F894DEBF0FBECDBF109256
:100B6000590244E750E060E170E089E093E00E94C0
:100B7000C816E9E0F3E094E785E5915019F021917A
:100B8000820FFBCF90917C039813CFC0E090280395
:100B9000F12C0091270395ECC92E92E0D92E1A82F0
:100BA000198210E028EA822E24E0922EA12CB12C8A
:100BB00049815A81449F9001459F300D300D112489
:100BC0002F5031092E9DC0012F9D900D3E9D900DFF
:100BD00011248A509A4F849FD001859FB00D949F15
:100BE000B00D112498010E946419A50194010E947E
:100BF0003619F601219331936F0129813A812F5FD4
:100C00003F4F3A8329832530310591F630912C03EB
:100C10003A8704E6031B84E6389FA00111245C8315
:100C20004B8380912D03882E912CA12CB12C6090A8
:100C30007703709078032AE337E0F901E619F709A2
:100C4000FE83ED83FA85F195F9872FEA32E03A8346
:100C500029831EE63A85131B482F50E058874F839F
:100C600080E1C82E87E2D82EE12CF12C598515168B
:100C700014F04A8501C0402F89858802D0011124D3
:100C80002F8138850E9464191B012C01242F30E02C
:100C9000D9010E9455199B01AC01C201B1010E940A
:100CA0003619DA01C9018C599F4FAF4FBF4FAC01C4
:100CB000BD01481959096A097B09E9858E2FEE0F94
:100CC000990B849FD001859FB00D949FB00D112486
:100CD0002B813C81A20FB31F2D813E810E945519AB
:100CE000A70196010E941419260D371DE981FA818A
:100CF00021933193FA83E983F985F65FF9871F130E
:100D0000B5CFA0917503B091760320E432E44FE0B3
:100D100050E00E946B1960935201709353018093CD
:100D200054019093550181E00BC043E064E686E0F6
:100D30000E94450583E0809320050E94DE0680E046
:100D40002A960FB6F894DEBF0FBECDBFDF91CF91CC
:100D50001F910F91FF90EF90DF90CF90BF90AF90D9
:100D60009F908F907F906F905F904F903F902F90CB
:100D70000895CF93C82F10925902E9E0F3E094E769
:100D800085E5915019F02191820FFBCF80937C0370
:100D900044E750E060E170E089E093E00E94D816FB
:100DA0000E949505C13029F441E064E18FE00E9482
:100DB000450581E080932005CF910895E9E0F3E0B7
:100DC00081E280832EE1218397E1928383832483D0
:100DD00095832AE5258B9AE0968B34E6378B34E4AD
:100DE00036833DE23783108630E4318739E132873C
:100DF00048E143874FE044871586168642E24787DD
:100E00004EE0408B45E3418B328B838B83E5848BB3
:100E100088E2808F138E148E158E268F81E4878F43
:100E200010A211A212A282E383A314A212A611A6F9
:100E300014A613A616A615A610AA17A612AA11AADA
:100E400016A215A210A617A213AA2AE431E0309325
:100E50007603209375032EE734E0309378032093D4
:100E600077039093790388E790E090937B038093D6
:100E70007A0380E00C94B90680917905882319F0F3
:100E80002898109279050895CF92DF92EF92FF9201
:100E90000F931F93CF93DF93E0912405E11117C0C7
:100EA000E1E0E09324059093510580935005709301
:100EB0005305609352055093550540935405109384
:100EC0005705009356053093590520935805E09136
:100ED0004205E33030F5F0E0EE0FFF1FE05BFA4F24
:100EE000C081D181209709F44CC08091790581118E
:100EF00069C0C0915805D09159050E94FA0000912F
:100F000031051091320520913305309134050C0FD5
:100F10001D1F211D311D601771078207930718F5EA
:100F200030C0C0903105D0903205E0903305F0908C
:100F300034050E94FA002091560530915705DC01D6
:100F4000CB01821B930BA109B109C816D906EA0689
:100F5000FB06B8F410924205109224051092190570
:100F60001092200525C081E080937905289A0E947F
:100F7000FA006093310570933205809333059093A6
:100F800034059091290580914205913051F0E82F68
:100F9000F0E0EE0FFF1FE05BFA4F20813181232B41
:100FA000A9F5833018F48F5F8093420510922905CC
:100FB000DF91CF911F910F91FF90EF90DF90CF9035
:100FC0000C943C070E94FA00009131051091320503
:100FD00020913305309134050C0F1D1F211D311D4B
:100FE000601771078207930760F2109279052898BD
:100FF0000E94FA00609331057093320580933305A7
:101000009093340581E080932905BBCFDF91CF9188
:101010001F910F91FF90EF90DF90CF9008950F9365
:101020001F93CF93C82F80ED0E945C02C093BB003A
:1010300084E80E94470281ED0E945C0203E115E012
:10104000C6E0C15049F084EC0E9447028091BB0089
:10105000F80181938F01F5CF84E80E9447028091C7
:10106000BB0094E99093BC0080931805CF911F9129
:101070000F9108950F931F93CF93DF93082F162F8F
:1010800080ED0E945C02CBEBD0E0088384E80E94F4
:101090004702188384E80E94470284E98093BC00D9
:1010A000DF91CF911F910F91089590E0FC01ED51D8
:1010B000FF4F2491FC01E153FF4F8491882399F065
:1010C00090E0880F991FFC01EB53FF4FA591B4915D
:1010D000FC01E554FF4F859194918FB7F894EC9102
:1010E000E22BEC938FBF0895CF93DF93CDB7DEB79C
:1010F000E7970FB6F894DEBF0FBECDBF789484B5E6
:10110000826084BD84B5816084BD85B5826085BD03
:1011100085B5816085BD80916E00816080936E0091
:101120001092810080918100826080938100809183
:101130008100816080938100809180008160809334
:1011400080008091B10084608093B1008091B000F4
:1011500081608093B00080917A00846080937A00EF
:1011600080917A00826080937A0080917A00816019
:1011700080937A0080917A00806880937A00109240
:10118000C10082E08093C0001092C50080E180938E
:10119000C4008091C10088698093C1008DE00E94E5
:1011A000550888E00E94550809E211E02DE2E22E80
:1011B00021E0F22ED8018D918D010E945508E01694
:1011C000F106C1F780918000806880938000809153
:1011D00080008062809380008091B000806880935E
:1011E000B0008091B00080628093B00088EE93E000
:1011F0009093D0028093CF029093D2028093D10239
:101200009093D4028093D3029093D6028093D50218
:101210000E94B7036CE271E080E090E00E94C000A1
:101220000E942705109259020E949505809159024B
:10123000882321F0815080935902F6CF0E94270520
:101240000E949505409159024F5F68E282E00E943A
:101250004505E1E4F1E09BB1DF018191892B8BB978
:1012600090916D008C91892B80936D00B1E0E634F4
:10127000FB0789F784E08093680015E09CE0F92E75
:1012800004E0449845981092B900F092B800009399
:10129000BC0010926A021092690260E88BE60E941C
:1012A0003A0862E370E080E090E00E94C00063E0F2
:1012B0008BE60E943A0860E08AE10E943A0868E101
:1012C0008BE10E943A0862E087E30E943A0860E1FD
:1012D0008CE10E943A088091690290916A02892B00
:1012E00011F0115071F60E949B00709337046093C7
:1012F000360480E092E0909306038093050380918A
:10130000070380688093070380915D0490915E04D9
:1013100020915B0430915C04FC01E21BF30B1E1670
:101320001F060CF0B5C1805E914B90935C048093D6
:101330005B048091AD038F5F833019F08093AD0320
:1013400002C01092AD0386E4A82E81E0B82E2DE7EE
:1013500033E04BE454E069EE73E0DA0180E090E0C2
:10136000DFB6F894F50111915F01E12FF0E0EE0F87
:10137000FF1FE050FF4FE080F180DFBEF901C08029
:10138000D18002811381F801EC0DFD1D8F010E5FEC
:101390001F4FF901C480D580F801EC0DFD1DEE0D45
:1013A000FF1DF695E795F695E795CD90DC901197A2
:1013B00013E0C11AD108EC15FD0538F46F0112E0F5
:1013C000C10ED11C1196DC92CE92CD90DC9011977B
:1013D00013E0C10ED11CCE16DF0620F43297119611
:1013E000FC93EE93D090AD03FC01EE0FFF1FE80FCE
:1013F000F91FED0DF11DEE0FFF1FE358FC4FF182B9
:10140000E082E091E803EE2369F0E150E093E80325
:10141000FB01008111810538F3E01F071CF01196D4
:101420001C930E9301962A5F3F4F12966E5F7F4F7B
:101430008830910509F094CF33E5E32E34E0F32EA4
:1014400010E0812F90E09595879595958795182FB9
:10145000DA012D913D91AD012D34B4E03B0724F02C
:1014600010682C3637400CF41064E416F50649F782
:1014700080914A04811308C0809149048A3F30F466
:101480008F5F8093490402C01092490410934A046C
:1014900080915104909152048D34944074F51092CF
:1014A000460410924504109248041092470410928A
:1014B000410410924204109243041092440410928A
:1014C0003E0410923D041092400410923F0480911B
:1014D000320390913303892B81F0909138048091ED
:1014E0000703992329F080FF03C00E94710505C0FE
:1014F00081FF03C08D7F809307038091490484316D
:1015000009F05EC08091070381FF0EC02091320375
:1015100030913303232B09F053C01F3509F050C01D
:101520008D7F809307034CC0173539F420E032E0FB
:10153000309306032093050309C01B3639F40E943B
:101540009B0070933704609336043AC08091320355
:1015500090913303892B29F41F3619F40E947105E9
:101560002FC0173939F440E052E0509335044093CE
:10157000340426C01B3B31F4809130039091310339
:10158000029607C0173B51F48091300390913103CC
:10159000029790933103809330030DC01E3B11F0EE
:1015A0000C94B41680912E0390912F030296909381
:1015B0002F0380932E0381E00E94B9061092490404
:1015C00080E090E000E010E0D7014D915D917D0159
:1015D00061E070E0453AB6E05B0714F460E070E06B
:1015E0009C012E5F3F4FFB0102C0EE0FFF1F2A95AB
:1015F000E2F79F0161E070E04431F5E05F0714F02D
:1016000060E070E0082E02C0660F771F0A94E2F7D0
:10161000622B732B4551554021E030E04F3851404B
:1016200010F020E030E0AC014F5F5F4F02C0220FAE
:10163000331F4A95E2F7622B732B062B172B039669
:101640008C30910509F622E333E0A8E3B4E0F90118
:10165000819191919F018023912341E0892B09F48D
:1016600040E04D93F4E0AD33BF0789F79091390422
:101670008091070391110C94A816209132043091A7
:1016800033042333310514F00C94A8160C944C1633
:1016900080913104823051F028F4882339F0813070
:1016A00029F006C0833011F0843011F41092310417
:1016B0000E949B0060935D0470935E0480935F04BE
:1016C000909360042091360430913704AB01421BA3
:1016D000530B9A015093300440932F04203F3A401B
:1016E00038F370933704609336048BE30E940F083D
:1016F0008091130590911405982789279827919533
:1017000081959109B3E095958795BA95E1F7909306
:10171000F8028093F702809115059091160598279D
:101720008927982791958195910913E0959587953B
:101730001A95E1F79093FA028093F90280911705C8
:101740009091180598278927982703E09595879504
:101750000A95E1F79093FC028093FB028091340498
:1017600090913504009709F464C001979093350473
:101770008093340407EF12E0EEEAF3E02AE532E06A
:101780008F3F61E0960721F410821182128213824A
:10179000D801CD90DD908D010D2C000CEE08FF08D6
:1017A00040815181628173814C0D5D1D6E1D7F1DD5
:1017B0004193519361937193A9E0759567955795FE
:1017C0004795AA95D1F7D9014D935D939D01B2E05C
:1017D0000D3F1B07A9F6892B61F580915E02909160
:1017E0005F02925090935F0280935E0210922F03EB
:1017F00010922E031092310310923003E9E5F2E0CB
:1018000090E185E5915019F02191820FFBCF8093F3
:10181000680240E150E060E070E089E592E00E94FB
:10182000D81641E064E18FE00E94450581E0809395
:1018300020058091F7029091F80220915A02309190
:101840005B02821B930B9093F8028093F7028091C6
:10185000F9029091FA0220915C0230915D02821BA4
:10186000930B9093FA028093F9028091FB0290917E
:10187000FC0220915E0230915F02821B930B9093D9
:10188000FC028093FB020E949B006B017C01809113
:10189000C8039091C903B601681B790B80E090E002
:1018A0000E94051829E134E442E959E30E949318A3
:1018B0002B013C01D092C903C092C803EFEDF2E0C6
:1018C000FAA3E9A32CEB33E0388F2F8BAE014F5FE7
:1018D0005F4F1A0185EE92E09C8F8B8F8F01C12C98
:1018E000D12C7601AF89B88D8D909D90AD90BC9034
:1018F000D501C40174E0B695A795979587957A951B
:10190000D1F7F801819391938F0146895789481B3C
:10191000590B052E000C660B770B480D591D6A1DDF
:101920007B1DEF89F88D4193519361937193F88FEB
:10193000EF8BBC010E94E203C60ED71EE81EF91E03
:10194000D80150966D917C915197072E000C880B11
:10195000990B0E940718A30192010E9493180E94FC
:10196000CF17F101619371931F01F2E0053E1F074C
:1019700009F0B8CFBE016F5F7F4F8CE191E00E940C
:10198000F503BE016F5F7F4F80E191E00E94F50398
:10199000CD2CDE2CEF2CFF24E7FCFA9486010756B1
:1019A00013405CE1C52E51E0D52E6FEDE62E62E0CE
:1019B000F62E412C512C3201023321E01207F8F4AB
:1019C000D7018D919C91F60122813381821B930B6B
:1019D000092E000CAA0BBB0B36E0880F991FAA1F1B
:1019E000BB1F3A95D1F74081518162817381840F89
:1019F000951FA61FB71F80839183A283B383D6014F
:101A000012966D917C911397F701819191917F01CD
:101A10000E94E203460E571E681E791EF4E0CF0EA8
:101A2000D11C28E2C21621E0D20631F6209126010F
:101A30003091270180910703213D314014F08068E7
:101A400001C08F778093070380911E0190911F0141
:101A5000BC010E94E2036B017C0180912601909100
:101A60002701BC010E94E203A7019601260F371F40
:101A7000481F591F2F8B388F498F5A8F8091220111
:101A800090912301BC010E94E2032F89388D498D7A
:101A90005A8D620F731F841F951F0E9407188B01B8
:101AA0009C013595279517950795E9EFCE2EDD24F6
:101AB000DA94EFE1EE2EEFE5FE2EC01AD10AE20A2B
:101AC000F30A27E336E344E35FE30E949318A70198
:101AD00096010E949318A70196010E9493189B01FA
:101AE000AC0166EF78E487ED9FE30E94F016A70152
:101AF00096010E9493186D8F7E8F8F8F98A300910F
:101B00001E0110911F012091260130912701032E03
:101B1000000C440B550BB801012E000C880B990BDF
:101B20000E947604909300038093FF026F89788D62
:101B3000898D9A8D0E9407186B017C01DC01CB0115
:101B4000B595A7959795879529EF822E99249A9414
:101B50002FE1A22E2FE5B22E881A990AAA0ABB0AF3
:101B600027E336E344E35FE3C701B6010E9493181D
:101B7000A50194010E949318A50194010E94931855
:101B80009B01AC0166EF78E487ED9FE30E94F016BD
:101B9000A50194010E949318A70196010E94931831
:101BA0000E94CF179B01AC018091220190912301EB
:101BB000BC01990F880B990B0E9476049093020345
:101BC00080930103A0911601B09117012F89388DE0
:101BD000498D5A8D0E9476196B017C01B801809164
:101BE0001201909113010E94E2034B015C0160918C
:101BF00026017091270180911A0190911B010E948A
:101C0000E203A5019401260F371F481F591FA09119
:101C10002201B09123010E947619A7019601261B8B
:101C2000370B480B590BCA01B9010E9407182D8DBB
:101C30003E8D4F8D58A10E9493180E94CF174B01E3
:101C40005C0160911E0170911F0180911A019091B9
:101C50001B010E94E2036B017C01609126017091DF
:101C6000270180911201909113010E94E203A701C4
:101C70009601261B370B480B590BCA01B901A50168
:101C800094010E9476046AE070E00E94001970934B
:101C90000403609303038091070381FD1EC0E0905D
:101CA000BA03F090BB03C301B2010E9407182D8D47
:101CB0003E8D4F8D58A10E9493180E94CF17970117
:101CC00043E0359527954A95E1F7E21AF30A6E0D40
:101CD0007F1D7093BB036093BA030E949C018091A7
:101CE000F1029091F20290930C0480930B04809186
:101CF000F3029091F40290930E0480930D0480916E
:101D0000F5029091F6029093100480930F040E94C4
:101D10009B002B0180915104909152048D3D35E040
:101D20009307ACF030912B03803D47E0940764F4B7
:101D30008C5D9540389FA001399F500D1124852F4F
:101D4000869520E8281B04C020E8231B01C020E85A
:101D500020902903312C9BE4A92E94E0B92E87E230
:101D600094E09CA78BA7A9E0B3E0BCA3ABA3E5E2FA
:101D7000F4E0FAABE9AB47E154E058AB4FA73A01C6
:101D80004F01B88FAF8BE7E2F4E030E0D5014D9121
:101D90005D915D014D3DB5E05B072CF0403D17E0E6
:101DA00051074CF40BC08CED95E0841B950B843FE0
:101DB00061E0960734F084EF91E003C0CA018C5DC6
:101DC0009540323009F466C0BC01660F672F661F6C
:101DD000770B71958B01000F111F0B531D4FD8010D
:101DE0000D911C917B01EE0CFF1CD701A953BD4F37
:101DF000ED90FC90E01AF10A7695762F662777959C
:101E000067956C01C61AD70AEC9CB001ED9C700D69
:101E1000FC9C700D1124660F672F661F770B719560
:101E2000600F711F71836083829DB001839D700D6F
:101E3000929D700D1124872F8695B0E8B81BB29F34
:101E4000C0011124880F892F881F990B9195AF89A4
:101E5000B88D1C91189FB001199F700D1124660F49
:101E6000672F661F770B7195D4016C93AF89B88D7E
:101E700012961C91189FB001199F700D1124660FC6
:101E8000672F661F770B7195D3016C934C3D5540BE
:101E900034F00CC0918380834C3D5540C4F4808164
:101EA0009181919581959109918380833F5F3296CD
:101EB0004F89588D4D5F5F4F588F4F8B5FEF851A5D
:101EC000950A6FEF661A760A333009F05FCF2091DA
:101ED0005104309152042C3484E038073CF0213D09
:101EE00097E039072CF020ED37E002C02CE434E015
:101EF0002C543440AFEFB9E00E94551924E833E088
:101F000040E050E00E941419832F9927FC01EE0F46
:101F1000FF1FE155FD4F60817181FC01EE0FFF1F36
:101F2000EF54FD4F0190F081E02DE61BF70B982F49
:101F30008827281B390BE29FC001E39F900DF29F79
:101F4000900D1124892F9927680F791F70932E0403
:101F500060932D04809104048F5F8093040480912A
:101F6000CF03E82FF0E0DF01A85CBB4F9C91E65364
:101F7000FC4F2081291719F021E020931905908347
:101F80008F5F853018F48093CF0302C01092CF0387
:101F900080912801813039F480912005811103C09E
:101FA0001092190502C01092280180913C048823E8
:101FB00021F081E080931C0502C010921C058091E5
:101FC000520190915301A0915401B0915501009795
:101FD000A105B105A9F04091FC035091FD0360916A
:101FE000FE037091FF03481759076A077B0740F00B
:101FF0008091070381FF04C081E080931E0502C029
:1020000010921E058091690290916A0201968636AF
:10201000910520F081E08093220502C010922205F4
:1020200080911A05813019F400ED17E043C0823029
:1020300021F080912105813049F402E310E022E390
:1020400030E048EC50E068EC70E027C08091190562
:10205000813049F400E010E022E330E040E050E05D
:1020600060E070E01AC0823039F400E010E022E352
:1020700030E040E050E00FC0833019F400E010E0A1
:1020800006C080911C05813059F402E310E022E380
:1020900030E042E350E062E370E082E390E035C07C
:1020A00080911E05813051F380912005813049F4E3
:1020B00008EC10E022E330E040E050E060E070E047
:1020C00013C0823039F408EC10E022E330E040E045
:1020D00050E008C0833059F408EC10E022E330E00F
:1020E00048EC50E068EC70E088EC90E00EC0809125
:1020F0002405813069F400E010E020E030E040E0A9
:1021000050E060E070E080E090E00E94440702C090
:102110000E943C071092210580913404909135046F
:10212000892B31F48091050390910603892B11F0DE
:102130001D9A08C08091070382FD2D9880910703A6
:1021400081FD2D9A40915D0450915E0460915F0481
:10215000709160048091000490910104A0910204A8
:10216000B091030484179507A607B70700F580917F
:10217000070387FD19C08B7F809307031D9A809109
:102180005D0490915E04A0915F04B091600480565C
:102190009947AE4FBF4F8093000490930104A093E2
:1021A0000204B093030403C08460809307030E9479
:1021B0009B001092AE02809158019091D003891B30
:1021C000E2E3FE2EFDE66F2EF0E07F2EAAE38A2EDC
:1021D000A7E09A2EB8EEAB2EB3E0BB2E10EFE12EA7
:1021E00003E0D02E2FEF280F882309F4DDC1809162
:1021F000570190915601891B8F778F3408F0D4C115
:102200008091D003E82FF0E0E75AFE4F90813091A3
:102210005801831719F08F5F8093D0038091FB03DF
:10222000811105C081E0943209F0B7C1BAC1813093
:1022300029F49D3409F0B1C182E0B3C1823029F4A0
:102240009C3309F0AAC183E0ACC1833071F49134AE
:1022500010F0822FC7CF9093FA039093AD021092A3
:10226000F9031092AC0284E09CC1843049F490934D
:10227000AB028091AD0298279093AD0285E091C1A9
:10228000853009F08EC1E091F9034091FA03309155
:10229000AD02E41760F439273093AD0231E03E0F10
:1022A0003093F903F0E0E559FD4F90837AC139137B
:1022B00076C18091AB02853709F430C108F057C070
:1022C0008D3609F41FC128F5873609F4FAC0A8F441
:1022D000853609F4C1C008F0F0C0843609F056C153
:1022E000E982DA821B8220E030E040E050E72C8374
:1022F0003D834E835F8367E0DDC0893609F4FEC00D
:1023000008F4EDC08C3609F041C166E08FEF92E031
:102310003AC1813709F405C148F48F3609F4F6C093
:1023200008F0F8C067E089ED93E02DC1833709F428
:102330000BC108F0FAC01A8219828091770390913C
:1023400078039C838B839E828D82B886AF821A86A7
:1023500019861C861B861D861E861F86188A1A8A69
:10236000198A1B8A1C8A1D8A1E8A66E1A3C08F3CBB
:1023700009F45EC0D8F48A3C09F446C078F4883782
:1023800009F4A3C0883CC1F1873709F0FFC065E0BC
:1023900080E00E94660308E610E0CCC08C3C09F4A3
:1023A00041C0C0F18D3C09F4DAC0F0C08F3E09F4A1
:1023B0009AC050F4833D09F449C0843D09F489C0B2
:1023C000803D09F0E3C0C4C08A3F09F4D3C08E3F0A
:1023D00009F4D6C0803F09F0D9C064E080E00E94D3
:1023E000660362E080E393E00E94460362E08EE2CF
:1023F00093E00E944603CEC060E189EE93E00E9424
:102400001703F092E803CBC00E948A036EE189E0D3
:1024100093E005C00E948A036AE082E393E00E9491
:102420001703BDC00E948A0367E087E293E0F7CFFD
:102430000E948A0366E1CE0101960E9417038B81F8
:102440009C819093780380937703A9C00E948A03AC
:1024500062E08DEF92E0E3CF80912F049091300401
:102460009A8389838091690290916A029C838B830D
:1024700041E050E05E834D832091070323FD04C0BB
:1024800080E090E0DC0104C082E090E0A0E0B0E0F9
:1024900024FD846025FD886030913C043111806109
:1024A00021FD81608F839887A987BA87809159021F
:1024B0008B876BE0CE01019666C062E18FED92E002
:1024C00062C060E181E391E05EC068E38DE393E088
:1024D0005AC00E948A0368E38DE393E0A0CF60E1D5
:1024E0008FEC92E050C00E948A0362E080E393E0A8
:1024F0000E94170362E08EE293E091CF60E18BE4EB
:1025000094E041C066E082EE93E03DC067E087E280
:1025100093E039C06EE189E093E035C08BE890E04C
:1025200006C06AE082E393E02EC08DE690E00E9450
:10253000A10335C0F80184910E942E030F5F1F4F45
:1025400060167106B9F726C068E089E291E01BC009
:102550008091070381FD11C00E94DE060EC08091AC
:10256000070381FD0AC020E032E030933504209358
:10257000340403C080E00E94B9060E948A030FC0A1
:1025800068E081ED93E00E94900309C060E081E083
:102590000E9466030E94580302C080E002C080E0EF
:1025A00020E08093FB0355CE10910703312F32704A
:1025B0003FAB11FF18C020912F043091300480915F
:1025C000FC039091FD03A091FE03B091FF03820FE5
:1025D000931FA11DB11D8093FC039093FD03A09355
:1025E000FE03B093FF030E949B00641975096A38CB
:1025F0007240CCF30E949C01EBE0F4E065E0E62E33
:1026000064E0F62E73E0C72ED12CAB8DBC8D1C96EA
:102610002D913C911D9780819181280F391F219325
:102620003193D7018D919C91820F931FB6010E9427
:102630000019AB8DBC8D6D937D93BC8FAB8F3595A1
:102640002795D7012D933D937D01B4E0E131FB0740
:10265000E1F620912B0430912C04A9014B5B5F4FD4
:1026600080910303909104034B38510568F515FFE1
:102670002BC04091FD025091FE02841B950B8D34BE
:10268000EFEF9E0714F488599E4F843B910514F098
:102690008856914017FD04C0409108034370C1F073
:1026A00060912103689FA001699F500D1124CA0108
:1026B00045E0959587954A95E1F7281B390B3093AE
:1026C0002C0420932B0404C09093FE028093FD02FF
:1026D00014FF21C0809127049091280497FF03C024
:1026E0009195819591092091290430912A0437FF11
:1026F00003C0319521953109821793070CF4C90164
:102700008130F2E09F0714F080E092E02C01990FF5
:102710006608770803C0412C512C320121E234E0D5
:102720003AA729A74DE154E058A74FA389E194E0C7
:102730009EA38DA3A1E1B4E0BEA7ADA7E5E4F4E0BC
:10274000FC8FEB8F2DE334E0388F2F8B49E053E083
:102750005E8F4D8F212C312C012F0871ABA5BCA5AC
:10276000CD90DD90BCA7ABA7CC0CDD1CE9A1FAA1F4
:10277000868197819C0197FF04C022273327281B5D
:10278000390B21383240DCF49601281B390BC90182
:10279000AB8DBC8D2D913C91820F931F8138BEE390
:1027A0009B0714F080E89EE38038E1EC9E0714F468
:1027B00080E891ECAB8DBC8D8D939C9304C0EB8D28
:1027C000FC8D11821082AB8DBC8D8D919C91880FF8
:1027D000892F881F990BED8DFE8D2181289F400147
:1027E000299F900C112486E0959487948A95E1F7AF
:1027F000608170E0C6010E94E2039B01AC0196E09B
:1028000055954795379527959A95D1F72BAB3CABC6
:102810004DAB5EABEBA8FCA8002309F493C0F1011B
:10282000E25BFE4F808191818C0D9D1D853F31E0E3
:10283000930714F084EF91E08C304EEF940714F47A
:102840008CE09EEFF101E150FD4F208131816C0160
:10285000C21AD30AABA1BCA195968D919C91969773
:102860008C0D9D1DEF89F88DC080D180C80ED91EBA
:10287000F1E1CF16F7E2DF0624F0A0E1CA2EA7E2CD
:10288000DA2E20EFC21628EDD20624F4F0EFCF2E78
:10289000F8EDDF2EAF89B88DCD92DC9260911E03EA
:1028A00070E00E94E203AB01BC01E7E0759567951B
:1028B00057954795EA95D1F780912003B5E08B9F16
:1028C000C0011124AA24BB24A81AB90A4A155B0521
:1028D0002CF05A01841795070CF45C0160911F03DA
:1028E00070E0C6010E94E2036B017C014CE0F594AC
:1028F000E794D794C7944A95D1F7D401AC19BD0990
:10290000A30192010E947619DC01CB0169E0B59523
:10291000A795979587956A95D1F74C018C0C9D1CCE
:10292000ABA9BCA9AA19BB090E947619DC01CB018D
:1029300079E0B595A795979587957A95D1F7750123
:10294000E80EF91EE9A9FAA96191FAABE9AB70E0CA
:10295000A9A1BAA116968D919C9117970E94E203A6
:10296000DC01CB0126E0B595A795979587952A952B
:10297000D1F7E81AF90AE9A1FAA186819781A9A5F8
:10298000BAA52D913C911197FC01E21BF30B9F011D
:102990008D939D93BAA7A9A7AFA1B8A54D915C91BE
:1029A0001197EDA1FEA180819181840F951F419324
:1029B0005193FEA3EDA32D933D93B8A7AFA3AFA56D
:1029C000B8A96D91B8ABAFA770E0820F931F0E94BA
:1029D000E203E80CF91CDC01CB0135E0B595A795C5
:1029E000979587953A95D1F7E81AF90AEDA5FEA5CE
:1029F000E192F192FEA7EDA7F2E02F0E311C29A182
:102A00003AA12E5F3F4F3AA329A34B8D5C8D4E5FB9
:102A10005F4F5C8F4B8F8D8D9E8D03969E8F8D8F1C
:102A2000ABA1BCA11296BCA3ABA3EF89F88D3296E3
:102A3000F88FEF8BF4E02F16310409F08FCE609100
:102A40002A0370E0615F7F4F660F771F80912B0430
:102A500090912C040E94E2034B015C01A5E0B59427
:102A6000A79497948794AA95D1F78091E9029091C1
:102A7000EA027401E81AF90A6091100370E0C701D4
:102A80000E94E203940197FE04C0222733272819ED
:102A900039092333310564F5809041049090420454
:102AA000A0904304B0904404DC01CB01880D991D33
:102AB000AA1DBB1D8F3F2FEF9207A2072FE0B20781
:102AC00024F08EEF9FEFAFEFBFE082309105A105BC
:102AD00030EFB30724F482E090E0A0E0B0EF809301
:102AE000410490934204A0934304B093440408C06B
:102AF0001092410410924204109243041092440434
:102B000060910F0370E0C7010E94E203AB01BC01BA
:102B1000E6E07595679557954795EA95D1F79091B9
:102B200011032CE231E0D901A91BB1092227332777
:102B30002A1B3B0B421753072CF09A01A417B50729
:102B40000CF49D018091410490914204A0914304B2
:102B5000B09144044DE0B595A795979587954A9512
:102B6000D1F78B3F910514F08AEF90E08630BFEFEC
:102B70009B0714F486E09FEFBC01620F731F7093F4
:102B800016046093150440912D0450912E04209159
:102B9000110430911204CA01821B930BA0911304FB
:102BA000B0911404FC01EA0FFB1FE61BF70BF09336
:102BB000D002E093CF028A1B9B0B860F971F909346
:102BC000D2028093D102240F351FAD01420F531F53
:102BD000460F571F5093D4024093D3022A1B3B0B3E
:102BE000261B370B3093D6022093D5028417950706
:102BF0000CF4CA01821793070CF4C9018E179F07C2
:102C00000CF4CF014091770350917803C0905104A8
:102C1000D0905204EFECF2E024E0E22EDC01AA5363
:102C2000B7401074F12E08EE13E08B3327E09207C3
:102C300034F0208131812A1B3B0B3183208320819A
:102C40003181241735073CF02B3367E0360724F039
:102C50002AE337E001C09A01318320832CE4C216B5
:102C600024E0D20624F4F11002C0518340833FA92E
:102C7000311102C011830083EA943296E110D5CF5E
:102C80000E94B70380E090E0892B11F40C94840932
:102C90000E9400000C94840983FF08C0109246042F
:102CA0001092450410924804109247048091070343
:102CB000877F8093070380913A04882389F080916D
:102CC0000703877F8093070384FD1BC010923E0497
:102CD00010923D041092400410923F0480610FC096
:102CE0008091070384FF08C01092460410924504A7
:102CF0001092480410924704809107038F7E8093BE
:102D0000070380913804811105C080910703816019
:102D10008093070380913B04882399F080910703F7
:102D200085FF02C00C94580B80628093070380914A
:102D30000303909104039093FE028093FD020C9490
:102D4000580B809107038F7D809307030C94580BD9
:102D500083FDB1CF10923E0410923D0410924004C6
:102D600010923F048860A5CF1D3B11F00C94E00A3F
:102D700080912E0390912F0302970C94D70AFC01A7
:102D800005900020E9F7809590958E0F9F1F08957C
:102D9000DC01CB01FC01F999FECF06C0F2BDE1BD1B
:102DA000F89A319600B40D9241505040B8F708950A
:102DB000DC01CB0103C02D910E94E316415050402D
:102DC000D0F70895262FF999FECF1FBA92BD81BD85
:102DD00020BD0FB6F894FA9AF99A0FBE019608959D
:102DE0005058BB27AA270E9408170C9459180E9414
:102DF0004B1838F00E94521820F039F49F3F19F414
:102E000026F40C9448180EF4E095E7FB0C94421855
:102E1000E92F0E946A1858F3BA17620773078407EC
:102E2000950720F079F4A6F50C948C180EF4E09533
:102E30000B2EBA2FA02D0B01B90190010C01CA0174
:102E4000A0011124FF27591B99F0593F50F4503E1F
:102E500068F11A16F040A22F232F342F4427585F11
:102E6000F3CF469537952795A795F0405395C9F729
:102E70007EF41F16BA0B620B730B840BBAF09150E1
:102E8000A1F0FF0FBB1F661F771F881FC2F70EC080
:102E9000BA0F621F731F841F48F487957795679553
:102EA000B795F7959E3F08F0B0CF9395880F08F03F
:102EB0009927EE0F9795879508950E9471170C94A6
:102EC00059180E94521858F00E944B1840F029F4EB
:102ED0005F3F29F00C94421851110C948D180C94FA
:102EE00048180E946A1868F39923B1F3552391F3A7
:102EF000951B550BBB27AA2762177307840738F069
:102F00009F5F5F4F220F331F441FAA1FA9F335D0C5
:102F10000E2E3AF0E0E832D091505040E695001C79
:102F2000CAF72BD0FE2F29D0660F771F881FBB1F33
:102F3000261737074807AB07B0E809F0BB0B802D11
:102F4000BF01FF2793585F4F3AF09E3F510578F03D
:102F50000C9442180C948D185F3FE4F3983ED4F320
:102F6000869577956795B795F7959F5FC9F7880F11
:102F7000911D9695879597F90895E1E0660F771F63
:102F8000881FBB1F621773078407BA0720F0621BF4
:102F9000730B840BBA0BEE1F88F7E09508950E941F
:102FA000D6176894B1110C948D1808950E94721868
:102FB00088F09F5798F0B92F9927B751B0F0E1F0FA
:102FC000660F771F881F991F1AF0BA95C9F714C0AA
:102FD000B13091F00E948C18B1E008950C948C18D7
:102FE000672F782F8827B85F39F0B93FCCF38695E3
:102FF00077956795B395D9F73EF490958095709540
:1030000061957F4F8F4F9F4F0895E89409C097FBBC
:103010003EF490958095709561957F4F8F4F9F4FAF
:103020009923A9F0F92F96E9BB279395F6958795F3
:1030300077956795B795F111F8CFFAF4BB0F11F4B6
:1030400060FF1BC06F5F7F4F8F4F9F4F16C088235D
:1030500011F096E911C0772321F09EE8872F762F93
:1030600005C0662371F096E8862F70E060E02AF0D4
:103070009A95660F771F881FDAF7880F96958795C0
:1030800097F9089597F99F6780E870E060E00895E8
:103090009FEF80EC089500240A9416161706180670
:1030A0000906089500240A9412161306140605064C
:1030B0000895092E0394000C11F4882352F0BB0FDD
:1030C00040F4BF2B11F460FF04C06F5F7F4F8F4F40
:1030D0009F4F089557FD9058440F551F59F05F3F7B
:1030E00071F04795880F97FB991F61F09F3F79F02A
:1030F00087950895121613061406551FF2CF4695AC
:10310000F1DF08C0161617061806991FF1CF86952D
:103110007105610508940895E894BB276627772711
:10312000CB0197F908950E94A6180C9459180E9493
:103130004B1838F00E94521820F0952311F00C948F
:1031400042180C94481811240C948D180E946A1887
:1031500070F3959FC1F3950F50E0551F629FF001EA
:10316000729FBB27F00DB11D639FAA27F00DB11D03
:10317000AA1F649F6627B00DA11D661F829F22278C
:10318000B00DA11D621F739FB00DA11D621F839F13
:10319000A00D611D221F749F3327A00D611D231FE9
:1031A000849F600D211D822F762F6A2F11249F5737
:1031B00050409AF0F1F088234AF0EE0FFF1FBB1F3A
:1031C000661F771F881F91505040A9F79E3F5105F9
:1031D00080F00C9442180C948D185F3FE4F3983EF5
:1031E000D4F3869577956795B795F795E7959F5FA3
:1031F000C1F7FE2B880F911D9695879597F9089535
:1032000097FB072E16F4009407D077FD09D00E9493
:103210007E1907FC05D03EF4909581959F4F089547
:10322000709561957F4F0895A1E21A2EAA1BBB1BD2
:10323000FD010DC0AA1FBB1FEE1FFF1FA217B30782
:10324000E407F50720F0A21BB30BE40BF50B661F98
:10325000771F881F991F1A9469F76095709580955C
:1032600090959B01AC01BD01CF010895052E97FB00
:103270001EF400940E944D1957FD07D00E941419A6
:1032800007FC03D04EF40C944D19509540953095A1
:1032900021953F4F4F4F5F4F0895909580957095C2
:1032A00061957F4F8F4F9F4F0895A29FB001B39FAD
:1032B000C001A39F700D811D1124911DB29F700D3F
:1032C000811D1124911D08950E945519B7FF08957D
:1032D000821B930B08950E945519A59F900DB49FD2
:1032E000900DA49F800D911D11240895B7FF0C949B
:1032F0006B190E946B19821B930B0895AA1BBB1BB1
:1033000051E107C0AA1FBB1FA617B70710F0A61BE5
:10331000B70B881F991F5A95A9F780959095BC0106
:08332000CD010895F894FFCFE0
:10332800DE05DE05DE05DE05DE05DE05DE05DE057D
:103338000000000000000001000000000000000084
:10334800000000000000000201090A0B0306051036
:103358000CDC05DC05DC05DC05DC05DC05DC05E84A
:103368000304102040800405060207000103000042
:02337800000053
:00000001FF
